{
  "_format": "hh-sol-artifact-1",
  "contractName": "Election",
  "sourceName": "contracts/Election.sol",
  "abi": [
    {
      "inputs": [
        {
          "internalType": "uint64",
          "name": "_votingDeadline",
          "type": "uint64"
        }
      ],
      "stateMutability": "nonpayable",
      "type": "constructor"
    },
    {
      "anonymous": false,
      "inputs": [
        {
          "indexed": true,
          "internalType": "uint256",
          "name": "_candidateId",
          "type": "uint256"
        }
      ],
      "name": "votedEvent",
      "type": "event"
    },
    {
      "inputs": [
        {
          "internalType": "uint256",
          "name": "",
          "type": "uint256"
        }
      ],
      "name": "candidates",
      "outputs": [
        {
          "internalType": "uint256",
          "name": "id",
          "type": "uint256"
        },
        {
          "internalType": "string",
          "name": "name",
          "type": "string"
        },
        {
          "internalType": "uint256",
          "name": "voteCount",
          "type": "uint256"
        }
      ],
      "stateMutability": "view",
      "type": "function"
    },
    {
      "inputs": [],
      "name": "candidatesCount",
      "outputs": [
        {
          "internalType": "uint256",
          "name": "",
          "type": "uint256"
        }
      ],
      "stateMutability": "view",
      "type": "function"
    },
    {
      "inputs": [
        {
          "internalType": "uint256",
          "name": "currentTime",
          "type": "uint256"
        }
      ],
      "name": "isVotingTime",
      "outputs": [
        {
          "internalType": "bool",
          "name": "",
          "type": "bool"
        }
      ],
      "stateMutability": "view",
      "type": "function"
    },
    {
      "inputs": [
        {
          "internalType": "string",
          "name": "_cpf",
          "type": "string"
        },
        {
          "internalType": "string",
          "name": "_name",
          "type": "string"
        }
      ],
      "name": "registerVoter",
      "outputs": [],
      "stateMutability": "nonpayable",
      "type": "function"
    },
    {
      "inputs": [
        {
          "internalType": "uint256",
          "name": "_candidateId",
          "type": "uint256"
        }
      ],
      "name": "vote",
      "outputs": [],
      "stateMutability": "nonpayable",
      "type": "function"
    },
    {
      "inputs": [
        {
          "internalType": "address",
          "name": "",
          "type": "address"
        }
      ],
      "name": "voters",
      "outputs": [
        {
          "internalType": "address",
          "name": "id",
          "type": "address"
        },
        {
          "internalType": "string",
          "name": "cpf",
          "type": "string"
        },
        {
          "internalType": "string",
          "name": "name",
          "type": "string"
        },
        {
          "internalType": "bool",
          "name": "voted",
          "type": "bool"
        }
      ],
      "stateMutability": "view",
      "type": "function"
    }
  ],
  "bytecode": "0x60806040523480156200001157600080fd5b50604051620013b3380380620013b3833981810160405281019062000037919062000273565b6200007d6040518060400160405280600b81526020017f43616e6469646174652031000000000000000000000000000000000000000000815250620000f360201b60201c565b620000c36040518060400160405280600b81526020017f43616e6469646174652032000000000000000000000000000000000000000000815250620000f360201b60201c565b80600360006101000a81548167ffffffffffffffff021916908367ffffffffffffffff1602179055505062000391565b600260008154809291906200010890620002de565b91905055506040518060600160405280600254815260200182815260200160008152506001600060025481526020019081526020016000206000820151816000015560208201518160010190805190602001906200016892919062000179565b506040820151816002015590505050565b82805462000187906200035b565b90600052602060002090601f016020900481019282620001ab5760008555620001f7565b82601f10620001c657805160ff1916838001178555620001f7565b82800160010185558215620001f7579182015b82811115620001f6578251825591602001919060010190620001d9565b5b5090506200020691906200020a565b5090565b5b80821115620002255760008160009055506001016200020b565b5090565b600080fd5b600067ffffffffffffffff82169050919050565b6200024d816200022e565b81146200025957600080fd5b50565b6000815190506200026d8162000242565b92915050565b6000602082840312156200028c576200028b62000229565b5b60006200029c848285016200025c565b91505092915050565b7f4e487b7100000000000000000000000000000000000000000000000000000000600052601160045260246000fd5b6000819050919050565b6000620002eb82620002d4565b91507fffffffffffffffffffffffffffffffffffffffffffffffffffffffffffffffff821415620003215762000320620002a5565b5b600182019050919050565b7f4e487b7100000000000000000000000000000000000000000000000000000000600052602260045260246000fd5b600060028204905060018216806200037457607f821691505b602082108114156200038b576200038a6200032c565b5b50919050565b61101280620003a16000396000f3fe608060405234801561001057600080fd5b50600436106100625760003560e01c80630121b93f146100675780630d19e689146100835780632d35a8a2146100b35780633477ee2e146100d15780638a4c884714610103578063a3ec138d1461011f575b600080fd5b610081600480360381019061007c91906108e3565b610152565b005b61009d600480360381019061009891906108e3565b61034b565b6040516100aa919061092b565b60405180910390f35b6100bb610378565b6040516100c89190610955565b60405180910390f35b6100eb60048036038101906100e691906108e3565b61037e565b6040516100fa93929190610a09565b60405180910390f35b61011d60048036038101906101189190610b7c565b610430565b005b61013960048036038101906101349190610c52565b610689565b6040516101499493929190610c8e565b60405180910390f35b600360009054906101000a900467ffffffffffffffff1667ffffffffffffffff164211156101b5576040517f08c379a00000000000000000000000000000000000000000000000000000000081526004016101ac90610d53565b60405180910390fd5b6000803373ffffffffffffffffffffffffffffffffffffffff1673ffffffffffffffffffffffffffffffffffffffff16815260200190815260200160002060030160009054906101000a900460ff1615610244576040517f08c379a000000000000000000000000000000000000000000000000000000000815260040161023b90610dbf565b60405180910390fd5b60008111801561025657506002548111155b610295576040517f08c379a000000000000000000000000000000000000000000000000000000000815260040161028c90610e77565b60405180910390fd5b60016000803373ffffffffffffffffffffffffffffffffffffffff1673ffffffffffffffffffffffffffffffffffffffff16815260200190815260200160002060030160006101000a81548160ff02191690831515021790555060016000828152602001908152602001600020600201600081548092919061031690610ec6565b9190505550807ffff3c900d938d21d0990d786e819f29b8d05c1ef587b462b939609625b684b1660405160405180910390a250565b6000600360009054906101000a900467ffffffffffffffff1667ffffffffffffffff168211159050919050565b60025481565b60016020528060005260406000206000915090508060000154908060010180546103a790610f3e565b80601f01602080910402602001604051908101604052809291908181526020018280546103d390610f3e565b80156104205780601f106103f557610100808354040283529160200191610420565b820191906000526020600020905b81548152906001019060200180831161040357829003601f168201915b5050505050908060020154905083565b600360009054906101000a900467ffffffffffffffff1667ffffffffffffffff16421115610493576040517f08c379a000000000000000000000000000000000000000000000000000000000815260040161048a90610d53565b60405180910390fd5b600073ffffffffffffffffffffffffffffffffffffffff166000803373ffffffffffffffffffffffffffffffffffffffff1673ffffffffffffffffffffffffffffffffffffffff16815260200190815260200160002060000160009054906101000a900473ffffffffffffffffffffffffffffffffffffffff1673ffffffffffffffffffffffffffffffffffffffff1614610563576040517f08c379a000000000000000000000000000000000000000000000000000000000815260040161055a90610fbc565b60405180910390fd5b600060405180608001604052803373ffffffffffffffffffffffffffffffffffffffff168152602001848152602001838152602001600015158152509050806000803373ffffffffffffffffffffffffffffffffffffffff1673ffffffffffffffffffffffffffffffffffffffff16815260200190815260200160002060008201518160000160006101000a81548173ffffffffffffffffffffffffffffffffffffffff021916908373ffffffffffffffffffffffffffffffffffffffff16021790555060208201518160010190805190602001906106439291906107f6565b5060408201518160020190805190602001906106609291906107f6565b5060608201518160030160006101000a81548160ff021916908315150217905550905050505050565b60006020528060005260406000206000915090508060000160009054906101000a900473ffffffffffffffffffffffffffffffffffffffff16908060010180546106d290610f3e565b80601f01602080910402602001604051908101604052809291908181526020018280546106fe90610f3e565b801561074b5780601f106107205761010080835404028352916020019161074b565b820191906000526020600020905b81548152906001019060200180831161072e57829003601f168201915b50505050509080600201805461076090610f3e565b80601f016020809104026020016040519081016040528092919081815260200182805461078c90610f3e565b80156107d95780601f106107ae576101008083540402835291602001916107d9565b820191906000526020600020905b8154815290600101906020018083116107bc57829003601f168201915b5050505050908060030160009054906101000a900460ff16905084565b82805461080290610f3e565b90600052602060002090601f016020900481019282610824576000855561086b565b82601f1061083d57805160ff191683800117855561086b565b8280016001018555821561086b579182015b8281111561086a57825182559160200191906001019061084f565b5b509050610878919061087c565b5090565b5b8082111561089557600081600090555060010161087d565b5090565b6000604051905090565b600080fd5b600080fd5b6000819050919050565b6108c0816108ad565b81146108cb57600080fd5b50565b6000813590506108dd816108b7565b92915050565b6000602082840312156108f9576108f86108a3565b5b6000610907848285016108ce565b91505092915050565b60008115159050919050565b61092581610910565b82525050565b6000602082019050610940600083018461091c565b92915050565b61094f816108ad565b82525050565b600060208201905061096a6000830184610946565b92915050565b600081519050919050565b600082825260208201905092915050565b60005b838110156109aa57808201518184015260208101905061098f565b838111156109b9576000848401525b50505050565b6000601f19601f8301169050919050565b60006109db82610970565b6109e5818561097b565b93506109f581856020860161098c565b6109fe816109bf565b840191505092915050565b6000606082019050610a1e6000830186610946565b8181036020830152610a3081856109d0565b9050610a3f6040830184610946565b949350505050565b600080fd5b600080fd5b7f4e487b7100000000000000000000000000000000000000000000000000000000600052604160045260246000fd5b610a89826109bf565b810181811067ffffffffffffffff82111715610aa857610aa7610a51565b5b80604052505050565b6000610abb610899565b9050610ac78282610a80565b919050565b600067ffffffffffffffff821115610ae757610ae6610a51565b5b610af0826109bf565b9050602081019050919050565b82818337600083830152505050565b6000610b1f610b1a84610acc565b610ab1565b905082815260208101848484011115610b3b57610b3a610a4c565b5b610b46848285610afd565b509392505050565b600082601f830112610b6357610b62610a47565b5b8135610b73848260208601610b0c565b91505092915050565b60008060408385031215610b9357610b926108a3565b5b600083013567ffffffffffffffff811115610bb157610bb06108a8565b5b610bbd85828601610b4e565b925050602083013567ffffffffffffffff811115610bde57610bdd6108a8565b5b610bea85828601610b4e565b9150509250929050565b600073ffffffffffffffffffffffffffffffffffffffff82169050919050565b6000610c1f82610bf4565b9050919050565b610c2f81610c14565b8114610c3a57600080fd5b50565b600081359050610c4c81610c26565b92915050565b600060208284031215610c6857610c676108a3565b5b6000610c7684828501610c3d565b91505092915050565b610c8881610c14565b82525050565b6000608082019050610ca36000830187610c7f565b8181036020830152610cb581866109d0565b90508181036040830152610cc981856109d0565b9050610cd8606083018461091c565b95945050505050565b7f416374696f6e206e6f7420706572666f726d656420647572696e6720766f746960008201527f6e67207068617365000000000000000000000000000000000000000000000000602082015250565b6000610d3d60288361097b565b9150610d4882610ce1565b604082019050919050565b60006020820190508181036000830152610d6c81610d30565b9050919050565b7f596f7520616c726561647920766f746564000000000000000000000000000000600082015250565b6000610da960118361097b565b9150610db482610d73565b602082019050919050565b60006020820190508181036000830152610dd881610d9c565b9050919050565b7f5f63616e64696461746549642073686f756c642062652062696767657220746860008201527f616e203020616e64206c657373207468616e2063616e64696461746573436f7560208201527f6e74000000000000000000000000000000000000000000000000000000000000604082015250565b6000610e6160428361097b565b9150610e6c82610ddf565b606082019050919050565b60006020820190508181036000830152610e9081610e54565b9050919050565b7f4e487b7100000000000000000000000000000000000000000000000000000000600052601160045260246000fd5b6000610ed1826108ad565b91507fffffffffffffffffffffffffffffffffffffffffffffffffffffffffffffffff821415610f0457610f03610e97565b5b600182019050919050565b7f4e487b7100000000000000000000000000000000000000000000000000000000600052602260045260246000fd5b60006002820490506001821680610f5657607f821691505b60208210811415610f6a57610f69610f0f565b5b50919050565b7f596f752061726520616c72656164792072656769737465726564000000000000600082015250565b6000610fa6601a8361097b565b9150610fb182610f70565b602082019050919050565b60006020820190508181036000830152610fd581610f99565b905091905056fea264697066735822122017f24d513167cad0777ba4c148729c3e4b2d77ebf6048906330dbbe6f12244ed64736f6c63430008090033",
  "linkReferences": {},
  "deployedLinkReferences": {}
}