{
  "_format": "hh-sol-artifact-1",
  "contractName": "Election",
  "sourceName": "contracts/Election.sol",
  "abi": [
    {
      "inputs": [
        {
          "internalType": "uint64",
          "name": "_startTime",
          "type": "uint64"
        },
        {
          "internalType": "uint64",
          "name": "_endTime",
          "type": "uint64"
        },
        {
          "internalType": "string[]",
          "name": "_proposals",
          "type": "string[]"
        }
      ],
      "stateMutability": "nonpayable",
      "type": "constructor"
    },
    {
      "anonymous": false,
      "inputs": [
        {
          "indexed": true,
          "internalType": "uint256",
          "name": "_proposalId",
          "type": "uint256"
        }
      ],
      "name": "votedEvent",
      "type": "event"
    },
    {
      "inputs": [
        {
          "internalType": "string",
          "name": "_name",
          "type": "string"
        }
      ],
      "name": "addProposal",
      "outputs": [],
      "stateMutability": "nonpayable",
      "type": "function"
    },
    {
      "inputs": [
        {
          "internalType": "string",
          "name": "_name",
          "type": "string"
        },
        {
          "internalType": "address",
          "name": "id",
          "type": "address"
        },
        {
          "internalType": "uint256",
          "name": "_numberOfShares",
          "type": "uint256"
        }
      ],
      "name": "addShareholder",
      "outputs": [],
      "stateMutability": "nonpayable",
      "type": "function"
    },
    {
      "inputs": [
        {
          "internalType": "address",
          "name": "to",
          "type": "address"
        }
      ],
      "name": "delegate",
      "outputs": [],
      "stateMutability": "nonpayable",
      "type": "function"
    },
    {
      "inputs": [
        {
          "internalType": "uint256",
          "name": "id",
          "type": "uint256"
        }
      ],
      "name": "deleteProposal",
      "outputs": [],
      "stateMutability": "nonpayable",
      "type": "function"
    },
    {
      "inputs": [
        {
          "internalType": "address",
          "name": "id",
          "type": "address"
        }
      ],
      "name": "deleteShareholder",
      "outputs": [],
      "stateMutability": "nonpayable",
      "type": "function"
    },
    {
      "inputs": [
        {
          "internalType": "uint256",
          "name": "_id",
          "type": "uint256"
        },
        {
          "internalType": "string",
          "name": "_name",
          "type": "string"
        }
      ],
      "name": "editProposal",
      "outputs": [],
      "stateMutability": "nonpayable",
      "type": "function"
    },
    {
      "inputs": [
        {
          "internalType": "string",
          "name": "_name",
          "type": "string"
        },
        {
          "internalType": "address",
          "name": "id",
          "type": "address"
        },
        {
          "internalType": "uint256",
          "name": "_numberOfShares",
          "type": "uint256"
        }
      ],
      "name": "editShareholder",
      "outputs": [],
      "stateMutability": "nonpayable",
      "type": "function"
    },
    {
      "inputs": [],
      "name": "endTime",
      "outputs": [
        {
          "internalType": "uint64",
          "name": "",
          "type": "uint64"
        }
      ],
      "stateMutability": "view",
      "type": "function"
    },
    {
      "inputs": [
        {
          "internalType": "uint256",
          "name": "currentTime",
          "type": "uint256"
        }
      ],
      "name": "getElectionStatus",
      "outputs": [
        {
          "internalType": "string",
          "name": "",
          "type": "string"
        }
      ],
      "stateMutability": "view",
      "type": "function"
    },
    {
      "inputs": [],
      "name": "owner",
      "outputs": [
        {
          "internalType": "address",
          "name": "",
          "type": "address"
        }
      ],
      "stateMutability": "view",
      "type": "function"
    },
    {
      "inputs": [
        {
          "internalType": "uint256",
          "name": "",
          "type": "uint256"
        }
      ],
      "name": "proposals",
      "outputs": [
        {
          "internalType": "uint256",
          "name": "id",
          "type": "uint256"
        },
        {
          "internalType": "string",
          "name": "name",
          "type": "string"
        },
        {
          "internalType": "uint256",
          "name": "votes",
          "type": "uint256"
        }
      ],
      "stateMutability": "view",
      "type": "function"
    },
    {
      "inputs": [],
      "name": "proposalsCount",
      "outputs": [
        {
          "internalType": "uint256",
          "name": "",
          "type": "uint256"
        }
      ],
      "stateMutability": "view",
      "type": "function"
    },
    {
      "inputs": [
        {
          "internalType": "address",
          "name": "",
          "type": "address"
        }
      ],
      "name": "shareholders",
      "outputs": [
        {
          "internalType": "address",
          "name": "id",
          "type": "address"
        },
        {
          "internalType": "string",
          "name": "name",
          "type": "string"
        },
        {
          "internalType": "bool",
          "name": "voted",
          "type": "bool"
        },
        {
          "internalType": "address",
          "name": "delegate",
          "type": "address"
        },
        {
          "internalType": "uint256",
          "name": "vote",
          "type": "uint256"
        },
        {
          "internalType": "uint256",
          "name": "numberOfShares",
          "type": "uint256"
        },
        {
          "internalType": "uint256",
          "name": "weight",
          "type": "uint256"
        }
      ],
      "stateMutability": "view",
      "type": "function"
    },
    {
      "inputs": [
        {
          "internalType": "uint256",
          "name": "",
          "type": "uint256"
        }
      ],
      "name": "shareholdersAddresses",
      "outputs": [
        {
          "internalType": "address",
          "name": "",
          "type": "address"
        }
      ],
      "stateMutability": "view",
      "type": "function"
    },
    {
      "inputs": [],
      "name": "startTime",
      "outputs": [
        {
          "internalType": "uint64",
          "name": "",
          "type": "uint64"
        }
      ],
      "stateMutability": "view",
      "type": "function"
    },
    {
      "inputs": [
        {
          "internalType": "uint256",
          "name": "_proposalId",
          "type": "uint256"
        }
      ],
      "name": "vote",
      "outputs": [],
      "stateMutability": "nonpayable",
      "type": "function"
    }
  ],
  "bytecode": "0x60806040523480156200001157600080fd5b50604051620035e2380380620035e283398181016040528101906200003791906200062f565b336000806101000a81548173ffffffffffffffffffffffffffffffffffffffff021916908373ffffffffffffffffffffffffffffffffffffffff16021790555082600560006101000a81548167ffffffffffffffff021916908367ffffffffffffffff16021790555081600560086101000a81548167ffffffffffffffff021916908367ffffffffffffffff16021790555060005b81518110156200011a5762000104828281518110620000f057620000ef620006aa565b5b60200260200101516200012460201b60201c565b8080620001119062000712565b915050620000cc565b50505050620008e0565b60008054906101000a900473ffffffffffffffffffffffffffffffffffffffff1673ffffffffffffffffffffffffffffffffffffffff163373ffffffffffffffffffffffffffffffffffffffff1614620001b5576040517f08c379a0000000000000000000000000000000000000000000000000000000008152600401620001ac90620007e7565b60405180910390fd5b600560009054906101000a900467ffffffffffffffff1667ffffffffffffffff164211156200021b576040517f08c379a0000000000000000000000000000000000000000000000000000000008152600401620002129062000859565b60405180910390fd5b60026000815480929190620002309062000712565b919050555060405180606001604052806002548152602001828152602001600081525060016000600254815260200190815260200160002060008201518160000155602082015181600101908051906020019062000290929190620002a1565b506040820151816002015590505050565b828054620002af90620008aa565b90600052602060002090601f016020900481019282620002d357600085556200031f565b82601f10620002ee57805160ff19168380011785556200031f565b828001600101855582156200031f579182015b828111156200031e57825182559160200191906001019062000301565b5b5090506200032e919062000332565b5090565b5b808211156200034d57600081600090555060010162000333565b5090565b6000604051905090565b600080fd5b600080fd5b600067ffffffffffffffff82169050919050565b620003848162000365565b81146200039057600080fd5b50565b600081519050620003a48162000379565b92915050565b600080fd5b6000601f19601f8301169050919050565b7f4e487b7100000000000000000000000000000000000000000000000000000000600052604160045260246000fd5b620003fa82620003af565b810181811067ffffffffffffffff821117156200041c576200041b620003c0565b5b80604052505050565b60006200043162000351565b90506200043f8282620003ef565b919050565b600067ffffffffffffffff821115620004625762000461620003c0565b5b602082029050602081019050919050565b600080fd5b600080fd5b600067ffffffffffffffff8211156200049b576200049a620003c0565b5b620004a682620003af565b9050602081019050919050565b60005b83811015620004d3578082015181840152602081019050620004b6565b83811115620004e3576000848401525b50505050565b600062000500620004fa846200047d565b62000425565b9050828152602081018484840111156200051f576200051e62000478565b5b6200052c848285620004b3565b509392505050565b600082601f8301126200054c576200054b620003aa565b5b81516200055e848260208601620004e9565b91505092915050565b60006200057e620005788462000444565b62000425565b90508083825260208201905060208402830185811115620005a457620005a362000473565b5b835b81811015620005f257805167ffffffffffffffff811115620005cd57620005cc620003aa565b5b808601620005dc898262000534565b85526020850194505050602081019050620005a6565b5050509392505050565b600082601f830112620006145762000613620003aa565b5b81516200062684826020860162000567565b91505092915050565b6000806000606084860312156200064b576200064a6200035b565b5b60006200065b8682870162000393565b93505060206200066e8682870162000393565b925050604084015167ffffffffffffffff81111562000692576200069162000360565b5b620006a086828701620005fc565b9150509250925092565b7f4e487b7100000000000000000000000000000000000000000000000000000000600052603260045260246000fd5b7f4e487b7100000000000000000000000000000000000000000000000000000000600052601160045260246000fd5b6000819050919050565b60006200071f8262000708565b91507fffffffffffffffffffffffffffffffffffffffffffffffffffffffffffffffff821415620007555762000754620006d9565b5b600182019050919050565b600082825260208201905092915050565b7f4f6e6c79206f776e65722063616e20706572666f726d2074686973206163746960008201527f6f6e000000000000000000000000000000000000000000000000000000000000602082015250565b6000620007cf60228362000760565b9150620007dc8262000771565b604082019050919050565b600060208201905081810360008301526200080281620007c0565b9050919050565b7f526567697374726174696f6e2074696d65206973206f76657200000000000000600082015250565b60006200084160198362000760565b91506200084e8262000809565b602082019050919050565b60006020820190508181036000830152620008748162000832565b9050919050565b7f4e487b7100000000000000000000000000000000000000000000000000000000600052602260045260246000fd5b60006002820490506001821680620008c357607f821691505b60208210811415620008da57620008d96200087b565b5b50919050565b612cf280620008f06000396000f3fe608060405234801561001057600080fd5b50600436106100ff5760003560e01c806343605f54116100975780638259d553116100665780638259d553146102b25780638da5cb5b146102ce578063ae5408b9146102ec578063bfae217214610308576100ff565b806343605f54146102265780635c19a95c146102425780635c2930ad1461025e57806378e9792514610294576100ff565b80630affdf2c116100d35780630affdf2c146101a057806324785b9e146101bc5780632fdae3c5146101ec5780633197cbb614610208576100ff565b8062fe012e146101045780630121b93f14610134578063013cf08b146101505780630a9f46ad14610182575b600080fd5b61011e60048036038101906101199190611f47565b610324565b60405161012b9190611fb5565b60405180910390f35b61014e60048036038101906101499190611f47565b610363565b005b61016a60048036038101906101659190611f47565b610740565b60405161017993929190612078565b60405180910390f35b61018a6107f2565b60405161019791906120b6565b60405180910390f35b6101ba60048036038101906101b59190612232565b6107f8565b005b6101d660048036038101906101d19190611f47565b610bb7565b6040516101e391906122a1565b60405180910390f35b610206600480360381019061020191906122c3565b610cc1565b005b610210610e34565b60405161021d919061232f565b60405180910390f35b610240600480360381019061023b919061234a565b610e4e565b005b61025c6004803603810190610257919061234a565b611278565b005b6102786004803603810190610273919061234a565b61165f565b60405161028b9796959493929190612392565b60405180910390f35b61029c611776565b6040516102a9919061232f565b60405180910390f35b6102cc60048036038101906102c79190611f47565b611790565b005b6102d661194e565b6040516102e39190611fb5565b60405180910390f35b61030660048036038101906103019190612232565b611972565b005b610322600480360381019061031d9190612408565b611c1f565b005b6004818154811061033457600080fd5b906000526020600020016000915054906101000a900473ffffffffffffffffffffffffffffffffffffffff1681565b600560089054906101000a900467ffffffffffffffff1667ffffffffffffffff164211156103c6576040517f08c379a00000000000000000000000000000000000000000000000000000000081526004016103bd906124b0565b60405180910390fd5b600073ffffffffffffffffffffffffffffffffffffffff16600360003373ffffffffffffffffffffffffffffffffffffffff1673ffffffffffffffffffffffffffffffffffffffff16815260200190815260200160002060000160009054906101000a900473ffffffffffffffffffffffffffffffffffffffff1673ffffffffffffffffffffffffffffffffffffffff161415610498576040517f08c379a000000000000000000000000000000000000000000000000000000000815260040161048f90612542565b60405180910390fd5b6000600360003373ffffffffffffffffffffffffffffffffffffffff1673ffffffffffffffffffffffffffffffffffffffff16815260200190815260200160002060040154141561051e576040517f08c379a0000000000000000000000000000000000000000000000000000000008152600401610515906125ae565b60405180910390fd5b600360003373ffffffffffffffffffffffffffffffffffffffff1673ffffffffffffffffffffffffffffffffffffffff16815260200190815260200160002060020160009054906101000a900460ff16156105ae576040517f08c379a00000000000000000000000000000000000000000000000000000000081526004016105a59061261a565b60405180910390fd5b6000811180156105c057506002548111155b6105ff576040517f08c379a00000000000000000000000000000000000000000000000000000000081526004016105f6906126ac565b60405180910390fd5b6001600360003373ffffffffffffffffffffffffffffffffffffffff1673ffffffffffffffffffffffffffffffffffffffff16815260200190815260200160002060020160006101000a81548160ff02191690831515021790555080600360003373ffffffffffffffffffffffffffffffffffffffff1673ffffffffffffffffffffffffffffffffffffffff16815260200190815260200160002060030181905550600360003373ffffffffffffffffffffffffffffffffffffffff1673ffffffffffffffffffffffffffffffffffffffff1681526020019081526020016000206005015460016000838152602001908152602001600020600201600082825461070991906126fb565b92505081905550807ffff3c900d938d21d0990d786e819f29b8d05c1ef587b462b939609625b684b1660405160405180910390a250565b600160205280600052604060002060009150905080600001549080600101805461076990612780565b80601f016020809104026020016040519081016040528092919081815260200182805461079590612780565b80156107e25780601f106107b7576101008083540402835291602001916107e2565b820191906000526020600020905b8154815290600101906020018083116107c557829003601f168201915b5050505050908060020154905083565b60025481565b600560009054906101000a900467ffffffffffffffff1667ffffffffffffffff1642111561085b576040517f08c379a0000000000000000000000000000000000000000000000000000000008152600401610852906127fe565b60405180910390fd5b60008054906101000a900473ffffffffffffffffffffffffffffffffffffffff1673ffffffffffffffffffffffffffffffffffffffff163373ffffffffffffffffffffffffffffffffffffffff16146108e9576040517f08c379a00000000000000000000000000000000000000000000000000000000081526004016108e090612890565b60405180910390fd5b600073ffffffffffffffffffffffffffffffffffffffff16600360008473ffffffffffffffffffffffffffffffffffffffff1673ffffffffffffffffffffffffffffffffffffffff16815260200190815260200160002060000160009054906101000a900473ffffffffffffffffffffffffffffffffffffffff1673ffffffffffffffffffffffffffffffffffffffff16146109ba576040517f08c379a00000000000000000000000000000000000000000000000000000000081526004016109b1906128fc565b60405180910390fd5b60006040518060e001604052808473ffffffffffffffffffffffffffffffffffffffff168152602001858152602001600015158152602001600073ffffffffffffffffffffffffffffffffffffffff1681526020016000815260200183815260200183815250905080600360008573ffffffffffffffffffffffffffffffffffffffff1673ffffffffffffffffffffffffffffffffffffffff16815260200190815260200160002060008201518160000160006101000a81548173ffffffffffffffffffffffffffffffffffffffff021916908373ffffffffffffffffffffffffffffffffffffffff1602179055506020820151816001019080519060200190610ac5929190611d90565b5060408201518160020160006101000a81548160ff02191690831515021790555060608201518160020160016101000a81548173ffffffffffffffffffffffffffffffffffffffff021916908373ffffffffffffffffffffffffffffffffffffffff1602179055506080820151816003015560a0820151816004015560c082015181600501559050506004839080600181540180825580915050600190039060005260206000200160009091909190916101000a81548173ffffffffffffffffffffffffffffffffffffffff021916908373ffffffffffffffffffffffffffffffffffffffff16021790555050505050565b6060600560009054906101000a900467ffffffffffffffff1667ffffffffffffffff16821015610c1e576040518060400160405280600c81526020017f526567697374726174696f6e00000000000000000000000000000000000000008152509050610cbc565b600560089054906101000a900467ffffffffffffffff1667ffffffffffffffff16821015610c83576040518060400160405280600681526020017f566f74696e6700000000000000000000000000000000000000000000000000008152509050610cbc565b6040518060400160405280600881526020017f46696e697368656400000000000000000000000000000000000000000000000081525090505b919050565b60008054906101000a900473ffffffffffffffffffffffffffffffffffffffff1673ffffffffffffffffffffffffffffffffffffffff163373ffffffffffffffffffffffffffffffffffffffff1614610d4f576040517f08c379a0000000000000000000000000000000000000000000000000000000008152600401610d4690612890565b60405180910390fd5b600560009054906101000a900467ffffffffffffffff1667ffffffffffffffff16421115610db2576040517f08c379a0000000000000000000000000000000000000000000000000000000008152600401610da9906127fe565b60405180910390fd5b60026000815480929190610dc59061291c565b9190505550604051806060016040528060025481526020018281526020016000815250600160006002548152602001908152602001600020600082015181600001556020820151816001019080519060200190610e23929190611d90565b506040820151816002015590505050565b600560089054906101000a900467ffffffffffffffff1681565b600560009054906101000a900467ffffffffffffffff1667ffffffffffffffff16421115610eb1576040517f08c379a0000000000000000000000000000000000000000000000000000000008152600401610ea8906127fe565b60405180910390fd5b60008054906101000a900473ffffffffffffffffffffffffffffffffffffffff1673ffffffffffffffffffffffffffffffffffffffff163373ffffffffffffffffffffffffffffffffffffffff1614610f3f576040517f08c379a0000000000000000000000000000000000000000000000000000000008152600401610f3690612890565b60405180910390fd5b600073ffffffffffffffffffffffffffffffffffffffff16600360008373ffffffffffffffffffffffffffffffffffffffff1673ffffffffffffffffffffffffffffffffffffffff16815260200190815260200160002060000160009054906101000a900473ffffffffffffffffffffffffffffffffffffffff1673ffffffffffffffffffffffffffffffffffffffff161415611011576040517f08c379a0000000000000000000000000000000000000000000000000000000008152600401611008906129b1565b60405180910390fd5b600360008273ffffffffffffffffffffffffffffffffffffffff1673ffffffffffffffffffffffffffffffffffffffff168152602001908152602001600020600080820160006101000a81549073ffffffffffffffffffffffffffffffffffffffff02191690556001820160006110889190611e16565b6002820160006101000a81549060ff02191690556002820160016101000a81549073ffffffffffffffffffffffffffffffffffffffff02191690556003820160009055600482016000905560058201600090555050600060016004805490506110f191906129d1565b67ffffffffffffffff81111561110a576111096120db565b5b6040519080825280602002602001820160405280156111385781602001602082028036833780820191505090505b50905060005b60048054905081101561125c578273ffffffffffffffffffffffffffffffffffffffff166004828154811061117657611175612a05565b5b9060005260206000200160009054906101000a900473ffffffffffffffffffffffffffffffffffffffff1673ffffffffffffffffffffffffffffffffffffffff161461124957600481815481106111d0576111cf612a05565b5b9060005260206000200160009054906101000a900473ffffffffffffffffffffffffffffffffffffffff1682828151811061120e5761120d612a05565b5b602002602001019073ffffffffffffffffffffffffffffffffffffffff16908173ffffffffffffffffffffffffffffffffffffffff16815250505b80806112549061291c565b91505061113e565b508060049080519060200190611273929190611e56565b505050565b6000600360003373ffffffffffffffffffffffffffffffffffffffff1673ffffffffffffffffffffffffffffffffffffffff1681526020019081526020016000209050600081600401541415611303576040517f08c379a00000000000000000000000000000000000000000000000000000000081526004016112fa90612a80565b60405180910390fd5b8060020160009054906101000a900460ff1615611355576040517f08c379a000000000000000000000000000000000000000000000000000000000815260040161134c90612aec565b60405180910390fd5b3373ffffffffffffffffffffffffffffffffffffffff168273ffffffffffffffffffffffffffffffffffffffff1614156113c4576040517f08c379a00000000000000000000000000000000000000000000000000000000081526004016113bb90612b58565b60405180910390fd5b5b600073ffffffffffffffffffffffffffffffffffffffff16600360008473ffffffffffffffffffffffffffffffffffffffff1673ffffffffffffffffffffffffffffffffffffffff16815260200190815260200160002060020160019054906101000a900473ffffffffffffffffffffffffffffffffffffffff1673ffffffffffffffffffffffffffffffffffffffff161461153457600360008373ffffffffffffffffffffffffffffffffffffffff1673ffffffffffffffffffffffffffffffffffffffff16815260200190815260200160002060020160019054906101000a900473ffffffffffffffffffffffffffffffffffffffff1691503373ffffffffffffffffffffffffffffffffffffffff168273ffffffffffffffffffffffffffffffffffffffff16141561152f576040517f08c379a000000000000000000000000000000000000000000000000000000000815260040161152690612bc4565b60405180910390fd5b6113c5565b6000600360008473ffffffffffffffffffffffffffffffffffffffff1673ffffffffffffffffffffffffffffffffffffffff168152602001908152602001600020905060018160050154101561158957600080fd5b60018260020160006101000a81548160ff021916908315150217905550828260020160016101000a81548173ffffffffffffffffffffffffffffffffffffffff021916908373ffffffffffffffffffffffffffffffffffffffff1602179055508060020160009054906101000a900460ff161561163a5781600501546001600083600301548152602001908152602001600020600201600082825461162e91906126fb565b9250508190555061165a565b816005015481600501600082825461165291906126fb565b925050819055505b505050565b60036020528060005260406000206000915090508060000160009054906101000a900473ffffffffffffffffffffffffffffffffffffffff16908060010180546116a890612780565b80601f01602080910402602001604051908101604052809291908181526020018280546116d490612780565b80156117215780601f106116f657610100808354040283529160200191611721565b820191906000526020600020905b81548152906001019060200180831161170457829003601f168201915b5050505050908060020160009054906101000a900460ff16908060020160019054906101000a900473ffffffffffffffffffffffffffffffffffffffff16908060030154908060040154908060050154905087565b600560009054906101000a900467ffffffffffffffff1681565b60008054906101000a900473ffffffffffffffffffffffffffffffffffffffff1673ffffffffffffffffffffffffffffffffffffffff163373ffffffffffffffffffffffffffffffffffffffff161461181e576040517f08c379a000000000000000000000000000000000000000000000000000000000815260040161181590612890565b60405180910390fd5b600560009054906101000a900467ffffffffffffffff1667ffffffffffffffff16421115611881576040517f08c379a0000000000000000000000000000000000000000000000000000000008152600401611878906127fe565b60405180910390fd5b806001600083815260200190815260200160002060000154146118d9576040517f08c379a00000000000000000000000000000000000000000000000000000000081526004016118d090612c30565b60405180910390fd5b600060016000838152602001908152602001600020600001819055506040518060200160405280600081525060016000838152602001908152602001600020600101908051906020019061192e929190611d90565b506000600160008381526020019081526020016000206002018190555050565b60008054906101000a900473ffffffffffffffffffffffffffffffffffffffff1681565b600560009054906101000a900467ffffffffffffffff1667ffffffffffffffff164211156119d5576040517f08c379a00000000000000000000000000000000000000000000000000000000081526004016119cc906127fe565b60405180910390fd5b60008054906101000a900473ffffffffffffffffffffffffffffffffffffffff1673ffffffffffffffffffffffffffffffffffffffff163373ffffffffffffffffffffffffffffffffffffffff1614611a63576040517f08c379a0000000000000000000000000000000000000000000000000000000008152600401611a5a90612890565b60405180910390fd5b600073ffffffffffffffffffffffffffffffffffffffff16600360008473ffffffffffffffffffffffffffffffffffffffff1673ffffffffffffffffffffffffffffffffffffffff16815260200190815260200160002060000160009054906101000a900473ffffffffffffffffffffffffffffffffffffffff1673ffffffffffffffffffffffffffffffffffffffff161415611b35576040517f08c379a0000000000000000000000000000000000000000000000000000000008152600401611b2c906129b1565b60405180910390fd5b82600360008473ffffffffffffffffffffffffffffffffffffffff1673ffffffffffffffffffffffffffffffffffffffff1681526020019081526020016000206001019080519060200190611b8b929190611d90565b5080600360008473ffffffffffffffffffffffffffffffffffffffff1673ffffffffffffffffffffffffffffffffffffffff1681526020019081526020016000206004018190555080600360008473ffffffffffffffffffffffffffffffffffffffff1673ffffffffffffffffffffffffffffffffffffffff16815260200190815260200160002060050181905550505050565b60008054906101000a900473ffffffffffffffffffffffffffffffffffffffff1673ffffffffffffffffffffffffffffffffffffffff163373ffffffffffffffffffffffffffffffffffffffff1614611cad576040517f08c379a0000000000000000000000000000000000000000000000000000000008152600401611ca490612890565b60405180910390fd5b600560009054906101000a900467ffffffffffffffff1667ffffffffffffffff16421115611d10576040517f08c379a0000000000000000000000000000000000000000000000000000000008152600401611d07906127fe565b60405180910390fd5b600082118015611d2257506002548211155b611d61576040517f08c379a0000000000000000000000000000000000000000000000000000000008152600401611d5890612c9c565b60405180910390fd5b80600160008481526020019081526020016000206001019080519060200190611d8b929190611d90565b505050565b828054611d9c90612780565b90600052602060002090601f016020900481019282611dbe5760008555611e05565b82601f10611dd757805160ff1916838001178555611e05565b82800160010185558215611e05579182015b82811115611e04578251825591602001919060010190611de9565b5b509050611e129190611ee0565b5090565b508054611e2290612780565b6000825580601f10611e345750611e53565b601f016020900490600052602060002090810190611e529190611ee0565b5b50565b828054828255906000526020600020908101928215611ecf579160200282015b82811115611ece5782518260006101000a81548173ffffffffffffffffffffffffffffffffffffffff021916908373ffffffffffffffffffffffffffffffffffffffff16021790555091602001919060010190611e76565b5b509050611edc9190611ee0565b5090565b5b80821115611ef9576000816000905550600101611ee1565b5090565b6000604051905090565b600080fd5b600080fd5b6000819050919050565b611f2481611f11565b8114611f2f57600080fd5b50565b600081359050611f4181611f1b565b92915050565b600060208284031215611f5d57611f5c611f07565b5b6000611f6b84828501611f32565b91505092915050565b600073ffffffffffffffffffffffffffffffffffffffff82169050919050565b6000611f9f82611f74565b9050919050565b611faf81611f94565b82525050565b6000602082019050611fca6000830184611fa6565b92915050565b611fd981611f11565b82525050565b600081519050919050565b600082825260208201905092915050565b60005b83811015612019578082015181840152602081019050611ffe565b83811115612028576000848401525b50505050565b6000601f19601f8301169050919050565b600061204a82611fdf565b6120548185611fea565b9350612064818560208601611ffb565b61206d8161202e565b840191505092915050565b600060608201905061208d6000830186611fd0565b818103602083015261209f818561203f565b90506120ae6040830184611fd0565b949350505050565b60006020820190506120cb6000830184611fd0565b92915050565b600080fd5b600080fd5b7f4e487b7100000000000000000000000000000000000000000000000000000000600052604160045260246000fd5b6121138261202e565b810181811067ffffffffffffffff82111715612132576121316120db565b5b80604052505050565b6000612145611efd565b9050612151828261210a565b919050565b600067ffffffffffffffff821115612171576121706120db565b5b61217a8261202e565b9050602081019050919050565b82818337600083830152505050565b60006121a96121a484612156565b61213b565b9050828152602081018484840111156121c5576121c46120d6565b5b6121d0848285612187565b509392505050565b600082601f8301126121ed576121ec6120d1565b5b81356121fd848260208601612196565b91505092915050565b61220f81611f94565b811461221a57600080fd5b50565b60008135905061222c81612206565b92915050565b60008060006060848603121561224b5761224a611f07565b5b600084013567ffffffffffffffff81111561226957612268611f0c565b5b612275868287016121d8565b93505060206122868682870161221d565b925050604061229786828701611f32565b9150509250925092565b600060208201905081810360008301526122bb818461203f565b905092915050565b6000602082840312156122d9576122d8611f07565b5b600082013567ffffffffffffffff8111156122f7576122f6611f0c565b5b612303848285016121d8565b91505092915050565b600067ffffffffffffffff82169050919050565b6123298161230c565b82525050565b60006020820190506123446000830184612320565b92915050565b6000602082840312156123605761235f611f07565b5b600061236e8482850161221d565b91505092915050565b60008115159050919050565b61238c81612377565b82525050565b600060e0820190506123a7600083018a611fa6565b81810360208301526123b9818961203f565b90506123c86040830188612383565b6123d56060830187611fa6565b6123e26080830186611fd0565b6123ef60a0830185611fd0565b6123fc60c0830184611fd0565b98975050505050505050565b6000806040838503121561241f5761241e611f07565b5b600061242d85828601611f32565b925050602083013567ffffffffffffffff81111561244e5761244d611f0c565b5b61245a858286016121d8565b9150509250929050565b7f566f74696e672074696d65206973206f76657200000000000000000000000000600082015250565b600061249a601383611fea565b91506124a582612464565b602082019050919050565b600060208201905081810360008301526124c98161248d565b9050919050565b7f4f6e6c79207368617265686f6c6465722063616e20706572666f726d2074686960008201527f7320616374696f6e000000000000000000000000000000000000000000000000602082015250565b600061252c602883611fea565b9150612537826124d0565b604082019050919050565b6000602082019050818103600083015261255b8161251f565b9050919050565b7f596f752068617665206e6f207368617265730000000000000000000000000000600082015250565b6000612598601283611fea565b91506125a382612562565b602082019050919050565b600060208201905081810360008301526125c78161258b565b9050919050565b7f596f7520616c726561647920766f746564000000000000000000000000000000600082015250565b6000612604601183611fea565b915061260f826125ce565b602082019050919050565b60006020820190508181036000830152612633816125f7565b9050919050565b7f5f70726f706f73616c49642073686f756c64206265206269676765722074686160008201527f6e203020616e64206c657373207468616e2070726f706f73616c73436f756e74602082015250565b6000612696604083611fea565b91506126a18261263a565b604082019050919050565b600060208201905081810360008301526126c581612689565b9050919050565b7f4e487b7100000000000000000000000000000000000000000000000000000000600052601160045260246000fd5b600061270682611f11565b915061271183611f11565b9250827fffffffffffffffffffffffffffffffffffffffffffffffffffffffffffffffff03821115612746576127456126cc565b5b828201905092915050565b7f4e487b7100000000000000000000000000000000000000000000000000000000600052602260045260246000fd5b6000600282049050600182168061279857607f821691505b602082108114156127ac576127ab612751565b5b50919050565b7f526567697374726174696f6e2074696d65206973206f76657200000000000000600082015250565b60006127e8601983611fea565b91506127f3826127b2565b602082019050919050565b60006020820190508181036000830152612817816127db565b9050919050565b7f4f6e6c79206f776e65722063616e20706572666f726d2074686973206163746960008201527f6f6e000000000000000000000000000000000000000000000000000000000000602082015250565b600061287a602283611fea565b91506128858261281e565b604082019050919050565b600060208201905081810360008301526128a98161286d565b9050919050565b7f596f752061726520616c72656164792072656769737465726564000000000000600082015250565b60006128e6601a83611fea565b91506128f1826128b0565b602082019050919050565b60006020820190508181036000830152612915816128d9565b9050919050565b600061292782611f11565b91507fffffffffffffffffffffffffffffffffffffffffffffffffffffffffffffffff82141561295a576129596126cc565b5b600182019050919050565b7f596f7520617265206e6f74207265676973746572656400000000000000000000600082015250565b600061299b601683611fea565b91506129a682612965565b602082019050919050565b600060208201905081810360008301526129ca8161298e565b9050919050565b60006129dc82611f11565b91506129e783611f11565b9250828210156129fa576129f96126cc565b5b828203905092915050565b7f4e487b7100000000000000000000000000000000000000000000000000000000600052603260045260246000fd5b7f596f752068617665206e6f20726967687420746f20766f746500000000000000600082015250565b6000612a6a601983611fea565b9150612a7582612a34565b602082019050919050565b60006020820190508181036000830152612a9981612a5d565b9050919050565b7f596f7520616c726561647920766f7465642e0000000000000000000000000000600082015250565b6000612ad6601283611fea565b9150612ae182612aa0565b602082019050919050565b60006020820190508181036000830152612b0581612ac9565b9050919050565b7f53656c662d64656c65676174696f6e20697320646973616c6c6f7765642e0000600082015250565b6000612b42601e83611fea565b9150612b4d82612b0c565b602082019050919050565b60006020820190508181036000830152612b7181612b35565b9050919050565b7f466f756e64206c6f6f7020696e2064656c65676174696f6e2e00000000000000600082015250565b6000612bae601983611fea565b9150612bb982612b78565b602082019050919050565b60006020820190508181036000830152612bdd81612ba1565b9050919050565b7f50726f706f73616c206e6f7420666f756e640000000000000000000000000000600082015250565b6000612c1a601283611fea565b9150612c2582612be4565b602082019050919050565b60006020820190508181036000830152612c4981612c0d565b9050919050565b7f496e76616c69642070726f706f73616c20696400000000000000000000000000600082015250565b6000612c86601383611fea565b9150612c9182612c50565b602082019050919050565b60006020820190508181036000830152612cb581612c79565b905091905056fea2646970667358221220efe7a7138b9698fdf4dacdd0e322c9a6c2c995ed8e8ad03834d2d6d165fa3b1864736f6c63430008090033",
  "linkReferences": {},
  "deployedLinkReferences": {}
}