{
  "_format": "hh-sol-artifact-1",
  "contractName": "Election",
  "sourceName": "contracts/Election.sol",
  "abi": [
    {
      "inputs": [
        {
          "internalType": "uint64",
          "name": "_startTime",
          "type": "uint64"
        },
        {
          "internalType": "uint64",
          "name": "_endTime",
          "type": "uint64"
        },
        {
          "internalType": "string[]",
          "name": "_candidates",
          "type": "string[]"
        }
      ],
      "stateMutability": "nonpayable",
      "type": "constructor"
    },
    {
      "anonymous": false,
      "inputs": [
        {
          "indexed": true,
          "internalType": "uint256",
          "name": "_candidateId",
          "type": "uint256"
        }
      ],
      "name": "votedEvent",
      "type": "event"
    },
    {
      "inputs": [
        {
          "internalType": "string",
          "name": "_name",
          "type": "string"
        }
      ],
      "name": "addCandidate",
      "outputs": [],
      "stateMutability": "nonpayable",
      "type": "function"
    },
    {
      "inputs": [
        {
          "internalType": "string",
          "name": "_name",
          "type": "string"
        },
        {
          "internalType": "address",
          "name": "id",
          "type": "address"
        },
        {
          "internalType": "uint256",
          "name": "_numberOfShares",
          "type": "uint256"
        }
      ],
      "name": "addShareholder",
      "outputs": [],
      "stateMutability": "nonpayable",
      "type": "function"
    },
    {
      "inputs": [
        {
          "internalType": "uint256",
          "name": "",
          "type": "uint256"
        }
      ],
      "name": "candidates",
      "outputs": [
        {
          "internalType": "uint256",
          "name": "id",
          "type": "uint256"
        },
        {
          "internalType": "string",
          "name": "name",
          "type": "string"
        },
        {
          "internalType": "uint256",
          "name": "votes",
          "type": "uint256"
        }
      ],
      "stateMutability": "view",
      "type": "function"
    },
    {
      "inputs": [],
      "name": "candidatesCount",
      "outputs": [
        {
          "internalType": "uint256",
          "name": "",
          "type": "uint256"
        }
      ],
      "stateMutability": "view",
      "type": "function"
    },
    {
      "inputs": [
        {
          "internalType": "address",
          "name": "to",
          "type": "address"
        }
      ],
      "name": "delegate",
      "outputs": [],
      "stateMutability": "nonpayable",
      "type": "function"
    },
    {
      "inputs": [
        {
          "internalType": "uint256",
          "name": "id",
          "type": "uint256"
        }
      ],
      "name": "deleteCandidate",
      "outputs": [],
      "stateMutability": "nonpayable",
      "type": "function"
    },
    {
      "inputs": [
        {
          "internalType": "address",
          "name": "id",
          "type": "address"
        }
      ],
      "name": "deleteShareholder",
      "outputs": [],
      "stateMutability": "nonpayable",
      "type": "function"
    },
    {
      "inputs": [
        {
          "internalType": "uint256",
          "name": "_id",
          "type": "uint256"
        },
        {
          "internalType": "string",
          "name": "_name",
          "type": "string"
        }
      ],
      "name": "editCandidate",
      "outputs": [],
      "stateMutability": "nonpayable",
      "type": "function"
    },
    {
      "inputs": [
        {
          "internalType": "string",
          "name": "_name",
          "type": "string"
        },
        {
          "internalType": "address",
          "name": "id",
          "type": "address"
        },
        {
          "internalType": "uint256",
          "name": "_numberOfShares",
          "type": "uint256"
        }
      ],
      "name": "editShareholder",
      "outputs": [],
      "stateMutability": "nonpayable",
      "type": "function"
    },
    {
      "inputs": [
        {
          "internalType": "uint256",
          "name": "currentTime",
          "type": "uint256"
        }
      ],
      "name": "getElectionStatus",
      "outputs": [
        {
          "internalType": "string",
          "name": "",
          "type": "string"
        }
      ],
      "stateMutability": "view",
      "type": "function"
    },
    {
      "inputs": [
        {
          "internalType": "uint256",
          "name": "currentTime",
          "type": "uint256"
        }
      ],
      "name": "isVotingTime",
      "outputs": [
        {
          "internalType": "bool",
          "name": "",
          "type": "bool"
        }
      ],
      "stateMutability": "view",
      "type": "function"
    },
    {
      "inputs": [],
      "name": "owner",
      "outputs": [
        {
          "internalType": "address",
          "name": "",
          "type": "address"
        }
      ],
      "stateMutability": "view",
      "type": "function"
    },
    {
      "inputs": [
        {
          "internalType": "address",
          "name": "",
          "type": "address"
        }
      ],
      "name": "shareholders",
      "outputs": [
        {
          "internalType": "address",
          "name": "id",
          "type": "address"
        },
        {
          "internalType": "string",
          "name": "name",
          "type": "string"
        },
        {
          "internalType": "bool",
          "name": "voted",
          "type": "bool"
        },
        {
          "internalType": "address",
          "name": "delegate",
          "type": "address"
        },
        {
          "internalType": "uint256",
          "name": "vote",
          "type": "uint256"
        },
        {
          "internalType": "uint256",
          "name": "numberOfShares",
          "type": "uint256"
        },
        {
          "internalType": "uint256",
          "name": "weight",
          "type": "uint256"
        }
      ],
      "stateMutability": "view",
      "type": "function"
    },
    {
      "inputs": [
        {
          "internalType": "uint256",
          "name": "",
          "type": "uint256"
        }
      ],
      "name": "shareholdersAddresses",
      "outputs": [
        {
          "internalType": "address",
          "name": "",
          "type": "address"
        }
      ],
      "stateMutability": "view",
      "type": "function"
    },
    {
      "inputs": [
        {
          "internalType": "uint256",
          "name": "_candidateId",
          "type": "uint256"
        }
      ],
      "name": "vote",
      "outputs": [],
      "stateMutability": "nonpayable",
      "type": "function"
    }
  ],
  "bytecode": "0x60806040523480156200001157600080fd5b50604051620035f3380380620035f383398181016040528101906200003791906200062f565b336000806101000a81548173ffffffffffffffffffffffffffffffffffffffff021916908373ffffffffffffffffffffffffffffffffffffffff16021790555082600560006101000a81548167ffffffffffffffff021916908367ffffffffffffffff16021790555081600560086101000a81548167ffffffffffffffff021916908367ffffffffffffffff16021790555060005b81518110156200011a5762000104828281518110620000f057620000ef620006aa565b5b60200260200101516200012460201b60201c565b8080620001119062000712565b915050620000cc565b50505050620008e0565b60008054906101000a900473ffffffffffffffffffffffffffffffffffffffff1673ffffffffffffffffffffffffffffffffffffffff163373ffffffffffffffffffffffffffffffffffffffff1614620001b5576040517f08c379a0000000000000000000000000000000000000000000000000000000008152600401620001ac90620007e7565b60405180910390fd5b600560009054906101000a900467ffffffffffffffff1667ffffffffffffffff164211156200021b576040517f08c379a0000000000000000000000000000000000000000000000000000000008152600401620002129062000859565b60405180910390fd5b60026000815480929190620002309062000712565b919050555060405180606001604052806002548152602001828152602001600081525060016000600254815260200190815260200160002060008201518160000155602082015181600101908051906020019062000290929190620002a1565b506040820151816002015590505050565b828054620002af90620008aa565b90600052602060002090601f016020900481019282620002d357600085556200031f565b82601f10620002ee57805160ff19168380011785556200031f565b828001600101855582156200031f579182015b828111156200031e57825182559160200191906001019062000301565b5b5090506200032e919062000332565b5090565b5b808211156200034d57600081600090555060010162000333565b5090565b6000604051905090565b600080fd5b600080fd5b600067ffffffffffffffff82169050919050565b620003848162000365565b81146200039057600080fd5b50565b600081519050620003a48162000379565b92915050565b600080fd5b6000601f19601f8301169050919050565b7f4e487b7100000000000000000000000000000000000000000000000000000000600052604160045260246000fd5b620003fa82620003af565b810181811067ffffffffffffffff821117156200041c576200041b620003c0565b5b80604052505050565b60006200043162000351565b90506200043f8282620003ef565b919050565b600067ffffffffffffffff821115620004625762000461620003c0565b5b602082029050602081019050919050565b600080fd5b600080fd5b600067ffffffffffffffff8211156200049b576200049a620003c0565b5b620004a682620003af565b9050602081019050919050565b60005b83811015620004d3578082015181840152602081019050620004b6565b83811115620004e3576000848401525b50505050565b600062000500620004fa846200047d565b62000425565b9050828152602081018484840111156200051f576200051e62000478565b5b6200052c848285620004b3565b509392505050565b600082601f8301126200054c576200054b620003aa565b5b81516200055e848260208601620004e9565b91505092915050565b60006200057e620005788462000444565b62000425565b90508083825260208201905060208402830185811115620005a457620005a362000473565b5b835b81811015620005f257805167ffffffffffffffff811115620005cd57620005cc620003aa565b5b808601620005dc898262000534565b85526020850194505050602081019050620005a6565b5050509392505050565b600082601f830112620006145762000613620003aa565b5b81516200062684826020860162000567565b91505092915050565b6000806000606084860312156200064b576200064a6200035b565b5b60006200065b8682870162000393565b93505060206200066e8682870162000393565b925050604084015167ffffffffffffffff81111562000692576200069162000360565b5b620006a086828701620005fc565b9150509250925092565b7f4e487b7100000000000000000000000000000000000000000000000000000000600052603260045260246000fd5b7f4e487b7100000000000000000000000000000000000000000000000000000000600052601160045260246000fd5b6000819050919050565b60006200071f8262000708565b91507fffffffffffffffffffffffffffffffffffffffffffffffffffffffffffffffff821415620007555762000754620006d9565b5b600182019050919050565b600082825260208201905092915050565b7f4f6e6c79206f776e65722063616e20706572666f726d2074686973206163746960008201527f6f6e000000000000000000000000000000000000000000000000000000000000602082015250565b6000620007cf60228362000760565b9150620007dc8262000771565b604082019050919050565b600060208201905081810360008301526200080281620007c0565b9050919050565b7f526567697374726174696f6e2074696d65206973206f76657200000000000000600082015250565b60006200084160198362000760565b91506200084e8262000809565b602082019050919050565b60006020820190508181036000830152620008748162000832565b9050919050565b7f4e487b7100000000000000000000000000000000000000000000000000000000600052602260045260246000fd5b60006002820490506001821680620008c357607f821691505b60208210811415620008da57620008d96200087b565b5b50919050565b612d0380620008f06000396000f3fe608060405234801561001057600080fd5b50600436106100f45760003560e01c80633477ee2e116100975780635c2930ad116100665780635c2930ad146102815780638da5cb5b146102b7578063ae5408b9146102d5578063f26c72db146102f1576100f4565b80633477ee2e146101fb57806343605f541461022d578063462e91ec146102495780635c19a95c14610265576100f4565b80630d19e689116100d35780630d19e689146101615780631e620cd41461019157806324785b9e146101ad5780632d35a8a2146101dd576100f4565b8062fe012e146100f95780630121b93f146101295780630affdf2c14610145575b600080fd5b610113600480360381019061010e9190611f55565b61030d565b6040516101209190611fc3565b60405180910390f35b610143600480360381019061013e9190611f55565b61034c565b005b61015f600480360381019061015a9190612150565b610729565b005b61017b60048036038101906101769190611f55565b610ae8565b60405161018891906121da565b60405180910390f35b6101ab60048036038101906101a69190611f55565b610b41565b005b6101c760048036038101906101c29190611f55565b610cff565b6040516101d4919061227d565b60405180910390f35b6101e5610e09565b6040516101f291906122ae565b60405180910390f35b61021560048036038101906102109190611f55565b610e0f565b604051610224939291906122c9565b60405180910390f35b61024760048036038101906102429190612307565b610ec1565b005b610263600480360381019061025e9190612334565b6112eb565b005b61027f600480360381019061027a9190612307565b61145e565b005b61029b60048036038101906102969190612307565b611845565b6040516102ae979695949392919061237d565b60405180910390f35b6102bf61195c565b6040516102cc9190611fc3565b60405180910390f35b6102ef60048036038101906102ea9190612150565b611980565b005b61030b600480360381019061030691906123f3565b611c2d565b005b6004818154811061031d57600080fd5b906000526020600020016000915054906101000a900473ffffffffffffffffffffffffffffffffffffffff1681565b600560089054906101000a900467ffffffffffffffff1667ffffffffffffffff164211156103af576040517f08c379a00000000000000000000000000000000000000000000000000000000081526004016103a69061249b565b60405180910390fd5b600073ffffffffffffffffffffffffffffffffffffffff16600360003373ffffffffffffffffffffffffffffffffffffffff1673ffffffffffffffffffffffffffffffffffffffff16815260200190815260200160002060000160009054906101000a900473ffffffffffffffffffffffffffffffffffffffff1673ffffffffffffffffffffffffffffffffffffffff161415610481576040517f08c379a00000000000000000000000000000000000000000000000000000000081526004016104789061252d565b60405180910390fd5b6000600360003373ffffffffffffffffffffffffffffffffffffffff1673ffffffffffffffffffffffffffffffffffffffff168152602001908152602001600020600401541415610507576040517f08c379a00000000000000000000000000000000000000000000000000000000081526004016104fe90612599565b60405180910390fd5b600360003373ffffffffffffffffffffffffffffffffffffffff1673ffffffffffffffffffffffffffffffffffffffff16815260200190815260200160002060020160009054906101000a900460ff1615610597576040517f08c379a000000000000000000000000000000000000000000000000000000000815260040161058e90612605565b60405180910390fd5b6000811180156105a957506002548111155b6105e8576040517f08c379a00000000000000000000000000000000000000000000000000000000081526004016105df906126bd565b60405180910390fd5b6001600360003373ffffffffffffffffffffffffffffffffffffffff1673ffffffffffffffffffffffffffffffffffffffff16815260200190815260200160002060020160006101000a81548160ff02191690831515021790555080600360003373ffffffffffffffffffffffffffffffffffffffff1673ffffffffffffffffffffffffffffffffffffffff16815260200190815260200160002060030181905550600360003373ffffffffffffffffffffffffffffffffffffffff1673ffffffffffffffffffffffffffffffffffffffff168152602001908152602001600020600501546001600083815260200190815260200160002060020160008282546106f2919061270c565b92505081905550807ffff3c900d938d21d0990d786e819f29b8d05c1ef587b462b939609625b684b1660405160405180910390a250565b600560009054906101000a900467ffffffffffffffff1667ffffffffffffffff1642111561078c576040517f08c379a0000000000000000000000000000000000000000000000000000000008152600401610783906127ae565b60405180910390fd5b60008054906101000a900473ffffffffffffffffffffffffffffffffffffffff1673ffffffffffffffffffffffffffffffffffffffff163373ffffffffffffffffffffffffffffffffffffffff161461081a576040517f08c379a000000000000000000000000000000000000000000000000000000000815260040161081190612840565b60405180910390fd5b600073ffffffffffffffffffffffffffffffffffffffff16600360008473ffffffffffffffffffffffffffffffffffffffff1673ffffffffffffffffffffffffffffffffffffffff16815260200190815260200160002060000160009054906101000a900473ffffffffffffffffffffffffffffffffffffffff1673ffffffffffffffffffffffffffffffffffffffff16146108eb576040517f08c379a00000000000000000000000000000000000000000000000000000000081526004016108e2906128ac565b60405180910390fd5b60006040518060e001604052808473ffffffffffffffffffffffffffffffffffffffff168152602001858152602001600015158152602001600073ffffffffffffffffffffffffffffffffffffffff1681526020016000815260200183815260200183815250905080600360008573ffffffffffffffffffffffffffffffffffffffff1673ffffffffffffffffffffffffffffffffffffffff16815260200190815260200160002060008201518160000160006101000a81548173ffffffffffffffffffffffffffffffffffffffff021916908373ffffffffffffffffffffffffffffffffffffffff16021790555060208201518160010190805190602001906109f6929190611d9e565b5060408201518160020160006101000a81548160ff02191690831515021790555060608201518160020160016101000a81548173ffffffffffffffffffffffffffffffffffffffff021916908373ffffffffffffffffffffffffffffffffffffffff1602179055506080820151816003015560a0820151816004015560c082015181600501559050506004839080600181540180825580915050600190039060005260206000200160009091909190916101000a81548173ffffffffffffffffffffffffffffffffffffffff021916908373ffffffffffffffffffffffffffffffffffffffff16021790555050505050565b6000600560089054906101000a900467ffffffffffffffff1667ffffffffffffffff168211158015610b3a5750600560009054906101000a900467ffffffffffffffff1667ffffffffffffffff168210155b9050919050565b60008054906101000a900473ffffffffffffffffffffffffffffffffffffffff1673ffffffffffffffffffffffffffffffffffffffff163373ffffffffffffffffffffffffffffffffffffffff1614610bcf576040517f08c379a0000000000000000000000000000000000000000000000000000000008152600401610bc690612840565b60405180910390fd5b600560009054906101000a900467ffffffffffffffff1667ffffffffffffffff16421115610c32576040517f08c379a0000000000000000000000000000000000000000000000000000000008152600401610c29906127ae565b60405180910390fd5b80600160008381526020019081526020016000206000015414610c8a576040517f08c379a0000000000000000000000000000000000000000000000000000000008152600401610c8190612918565b60405180910390fd5b6000600160008381526020019081526020016000206000018190555060405180602001604052806000815250600160008381526020019081526020016000206001019080519060200190610cdf929190611d9e565b506000600160008381526020019081526020016000206002018190555050565b6060600560009054906101000a900467ffffffffffffffff1667ffffffffffffffff16821015610d66576040518060400160405280600c81526020017f526567697374726174696f6e00000000000000000000000000000000000000008152509050610e04565b600560089054906101000a900467ffffffffffffffff1667ffffffffffffffff16821015610dcb576040518060400160405280600681526020017f566f74696e6700000000000000000000000000000000000000000000000000008152509050610e04565b6040518060400160405280600881526020017f46696e697368656400000000000000000000000000000000000000000000000081525090505b919050565b60025481565b6001602052806000526040600020600091509050806000015490806001018054610e3890612967565b80601f0160208091040260200160405190810160405280929190818152602001828054610e6490612967565b8015610eb15780601f10610e8657610100808354040283529160200191610eb1565b820191906000526020600020905b815481529060010190602001808311610e9457829003601f168201915b5050505050908060020154905083565b600560009054906101000a900467ffffffffffffffff1667ffffffffffffffff16421115610f24576040517f08c379a0000000000000000000000000000000000000000000000000000000008152600401610f1b906127ae565b60405180910390fd5b60008054906101000a900473ffffffffffffffffffffffffffffffffffffffff1673ffffffffffffffffffffffffffffffffffffffff163373ffffffffffffffffffffffffffffffffffffffff1614610fb2576040517f08c379a0000000000000000000000000000000000000000000000000000000008152600401610fa990612840565b60405180910390fd5b600073ffffffffffffffffffffffffffffffffffffffff16600360008373ffffffffffffffffffffffffffffffffffffffff1673ffffffffffffffffffffffffffffffffffffffff16815260200190815260200160002060000160009054906101000a900473ffffffffffffffffffffffffffffffffffffffff1673ffffffffffffffffffffffffffffffffffffffff161415611084576040517f08c379a000000000000000000000000000000000000000000000000000000000815260040161107b906129e5565b60405180910390fd5b600360008273ffffffffffffffffffffffffffffffffffffffff1673ffffffffffffffffffffffffffffffffffffffff168152602001908152602001600020600080820160006101000a81549073ffffffffffffffffffffffffffffffffffffffff02191690556001820160006110fb9190611e24565b6002820160006101000a81549060ff02191690556002820160016101000a81549073ffffffffffffffffffffffffffffffffffffffff02191690556003820160009055600482016000905560058201600090555050600060016004805490506111649190612a05565b67ffffffffffffffff81111561117d5761117c611ff9565b5b6040519080825280602002602001820160405280156111ab5781602001602082028036833780820191505090505b50905060005b6004805490508110156112cf578273ffffffffffffffffffffffffffffffffffffffff16600482815481106111e9576111e8612a39565b5b9060005260206000200160009054906101000a900473ffffffffffffffffffffffffffffffffffffffff1673ffffffffffffffffffffffffffffffffffffffff16146112bc576004818154811061124357611242612a39565b5b9060005260206000200160009054906101000a900473ffffffffffffffffffffffffffffffffffffffff1682828151811061128157611280612a39565b5b602002602001019073ffffffffffffffffffffffffffffffffffffffff16908173ffffffffffffffffffffffffffffffffffffffff16815250505b80806112c790612a68565b9150506111b1565b5080600490805190602001906112e6929190611e64565b505050565b60008054906101000a900473ffffffffffffffffffffffffffffffffffffffff1673ffffffffffffffffffffffffffffffffffffffff163373ffffffffffffffffffffffffffffffffffffffff1614611379576040517f08c379a000000000000000000000000000000000000000000000000000000000815260040161137090612840565b60405180910390fd5b600560009054906101000a900467ffffffffffffffff1667ffffffffffffffff164211156113dc576040517f08c379a00000000000000000000000000000000000000000000000000000000081526004016113d3906127ae565b60405180910390fd5b600260008154809291906113ef90612a68565b919050555060405180606001604052806002548152602001828152602001600081525060016000600254815260200190815260200160002060008201518160000155602082015181600101908051906020019061144d929190611d9e565b506040820151816002015590505050565b6000600360003373ffffffffffffffffffffffffffffffffffffffff1673ffffffffffffffffffffffffffffffffffffffff16815260200190815260200160002090506000816004015414156114e9576040517f08c379a00000000000000000000000000000000000000000000000000000000081526004016114e090612afd565b60405180910390fd5b8060020160009054906101000a900460ff161561153b576040517f08c379a000000000000000000000000000000000000000000000000000000000815260040161153290612b69565b60405180910390fd5b3373ffffffffffffffffffffffffffffffffffffffff168273ffffffffffffffffffffffffffffffffffffffff1614156115aa576040517f08c379a00000000000000000000000000000000000000000000000000000000081526004016115a190612bd5565b60405180910390fd5b5b600073ffffffffffffffffffffffffffffffffffffffff16600360008473ffffffffffffffffffffffffffffffffffffffff1673ffffffffffffffffffffffffffffffffffffffff16815260200190815260200160002060020160019054906101000a900473ffffffffffffffffffffffffffffffffffffffff1673ffffffffffffffffffffffffffffffffffffffff161461171a57600360008373ffffffffffffffffffffffffffffffffffffffff1673ffffffffffffffffffffffffffffffffffffffff16815260200190815260200160002060020160019054906101000a900473ffffffffffffffffffffffffffffffffffffffff1691503373ffffffffffffffffffffffffffffffffffffffff168273ffffffffffffffffffffffffffffffffffffffff161415611715576040517f08c379a000000000000000000000000000000000000000000000000000000000815260040161170c90612c41565b60405180910390fd5b6115ab565b6000600360008473ffffffffffffffffffffffffffffffffffffffff1673ffffffffffffffffffffffffffffffffffffffff168152602001908152602001600020905060018160050154101561176f57600080fd5b60018260020160006101000a81548160ff021916908315150217905550828260020160016101000a81548173ffffffffffffffffffffffffffffffffffffffff021916908373ffffffffffffffffffffffffffffffffffffffff1602179055508060020160009054906101000a900460ff161561182057816005015460016000836003015481526020019081526020016000206002016000828254611814919061270c565b92505081905550611840565b8160050154816005016000828254611838919061270c565b925050819055505b505050565b60036020528060005260406000206000915090508060000160009054906101000a900473ffffffffffffffffffffffffffffffffffffffff169080600101805461188e90612967565b80601f01602080910402602001604051908101604052809291908181526020018280546118ba90612967565b80156119075780601f106118dc57610100808354040283529160200191611907565b820191906000526020600020905b8154815290600101906020018083116118ea57829003601f168201915b5050505050908060020160009054906101000a900460ff16908060020160019054906101000a900473ffffffffffffffffffffffffffffffffffffffff16908060030154908060040154908060050154905087565b60008054906101000a900473ffffffffffffffffffffffffffffffffffffffff1681565b600560009054906101000a900467ffffffffffffffff1667ffffffffffffffff164211156119e3576040517f08c379a00000000000000000000000000000000000000000000000000000000081526004016119da906127ae565b60405180910390fd5b60008054906101000a900473ffffffffffffffffffffffffffffffffffffffff1673ffffffffffffffffffffffffffffffffffffffff163373ffffffffffffffffffffffffffffffffffffffff1614611a71576040517f08c379a0000000000000000000000000000000000000000000000000000000008152600401611a6890612840565b60405180910390fd5b600073ffffffffffffffffffffffffffffffffffffffff16600360008473ffffffffffffffffffffffffffffffffffffffff1673ffffffffffffffffffffffffffffffffffffffff16815260200190815260200160002060000160009054906101000a900473ffffffffffffffffffffffffffffffffffffffff1673ffffffffffffffffffffffffffffffffffffffff161415611b43576040517f08c379a0000000000000000000000000000000000000000000000000000000008152600401611b3a906129e5565b60405180910390fd5b82600360008473ffffffffffffffffffffffffffffffffffffffff1673ffffffffffffffffffffffffffffffffffffffff1681526020019081526020016000206001019080519060200190611b99929190611d9e565b5080600360008473ffffffffffffffffffffffffffffffffffffffff1673ffffffffffffffffffffffffffffffffffffffff1681526020019081526020016000206004018190555080600360008473ffffffffffffffffffffffffffffffffffffffff1673ffffffffffffffffffffffffffffffffffffffff16815260200190815260200160002060050181905550505050565b60008054906101000a900473ffffffffffffffffffffffffffffffffffffffff1673ffffffffffffffffffffffffffffffffffffffff163373ffffffffffffffffffffffffffffffffffffffff1614611cbb576040517f08c379a0000000000000000000000000000000000000000000000000000000008152600401611cb290612840565b60405180910390fd5b600560009054906101000a900467ffffffffffffffff1667ffffffffffffffff16421115611d1e576040517f08c379a0000000000000000000000000000000000000000000000000000000008152600401611d15906127ae565b60405180910390fd5b600082118015611d3057506002548211155b611d6f576040517f08c379a0000000000000000000000000000000000000000000000000000000008152600401611d6690612cad565b60405180910390fd5b80600160008481526020019081526020016000206001019080519060200190611d99929190611d9e565b505050565b828054611daa90612967565b90600052602060002090601f016020900481019282611dcc5760008555611e13565b82601f10611de557805160ff1916838001178555611e13565b82800160010185558215611e13579182015b82811115611e12578251825591602001919060010190611df7565b5b509050611e209190611eee565b5090565b508054611e3090612967565b6000825580601f10611e425750611e61565b601f016020900490600052602060002090810190611e609190611eee565b5b50565b828054828255906000526020600020908101928215611edd579160200282015b82811115611edc5782518260006101000a81548173ffffffffffffffffffffffffffffffffffffffff021916908373ffffffffffffffffffffffffffffffffffffffff16021790555091602001919060010190611e84565b5b509050611eea9190611eee565b5090565b5b80821115611f07576000816000905550600101611eef565b5090565b6000604051905090565b600080fd5b600080fd5b6000819050919050565b611f3281611f1f565b8114611f3d57600080fd5b50565b600081359050611f4f81611f29565b92915050565b600060208284031215611f6b57611f6a611f15565b5b6000611f7984828501611f40565b91505092915050565b600073ffffffffffffffffffffffffffffffffffffffff82169050919050565b6000611fad82611f82565b9050919050565b611fbd81611fa2565b82525050565b6000602082019050611fd86000830184611fb4565b92915050565b600080fd5b600080fd5b6000601f19601f8301169050919050565b7f4e487b7100000000000000000000000000000000000000000000000000000000600052604160045260246000fd5b61203182611fe8565b810181811067ffffffffffffffff821117156120505761204f611ff9565b5b80604052505050565b6000612063611f0b565b905061206f8282612028565b919050565b600067ffffffffffffffff82111561208f5761208e611ff9565b5b61209882611fe8565b9050602081019050919050565b82818337600083830152505050565b60006120c76120c284612074565b612059565b9050828152602081018484840111156120e3576120e2611fe3565b5b6120ee8482856120a5565b509392505050565b600082601f83011261210b5761210a611fde565b5b813561211b8482602086016120b4565b91505092915050565b61212d81611fa2565b811461213857600080fd5b50565b60008135905061214a81612124565b92915050565b60008060006060848603121561216957612168611f15565b5b600084013567ffffffffffffffff81111561218757612186611f1a565b5b612193868287016120f6565b93505060206121a48682870161213b565b92505060406121b586828701611f40565b9150509250925092565b60008115159050919050565b6121d4816121bf565b82525050565b60006020820190506121ef60008301846121cb565b92915050565b600081519050919050565b600082825260208201905092915050565b60005b8381101561222f578082015181840152602081019050612214565b8381111561223e576000848401525b50505050565b600061224f826121f5565b6122598185612200565b9350612269818560208601612211565b61227281611fe8565b840191505092915050565b600060208201905081810360008301526122978184612244565b905092915050565b6122a881611f1f565b82525050565b60006020820190506122c3600083018461229f565b92915050565b60006060820190506122de600083018661229f565b81810360208301526122f08185612244565b90506122ff604083018461229f565b949350505050565b60006020828403121561231d5761231c611f15565b5b600061232b8482850161213b565b91505092915050565b60006020828403121561234a57612349611f15565b5b600082013567ffffffffffffffff81111561236857612367611f1a565b5b612374848285016120f6565b91505092915050565b600060e082019050612392600083018a611fb4565b81810360208301526123a48189612244565b90506123b360408301886121cb565b6123c06060830187611fb4565b6123cd608083018661229f565b6123da60a083018561229f565b6123e760c083018461229f565b98975050505050505050565b6000806040838503121561240a57612409611f15565b5b600061241885828601611f40565b925050602083013567ffffffffffffffff81111561243957612438611f1a565b5b612445858286016120f6565b9150509250929050565b7f566f74696e672074696d65206973206f76657200000000000000000000000000600082015250565b6000612485601383612200565b91506124908261244f565b602082019050919050565b600060208201905081810360008301526124b481612478565b9050919050565b7f4f6e6c79207368617265686f6c6465722063616e20706572666f726d2074686960008201527f7320616374696f6e000000000000000000000000000000000000000000000000602082015250565b6000612517602883612200565b9150612522826124bb565b604082019050919050565b600060208201905081810360008301526125468161250a565b9050919050565b7f596f752068617665206e6f207368617265730000000000000000000000000000600082015250565b6000612583601283612200565b915061258e8261254d565b602082019050919050565b600060208201905081810360008301526125b281612576565b9050919050565b7f596f7520616c726561647920766f746564000000000000000000000000000000600082015250565b60006125ef601183612200565b91506125fa826125b9565b602082019050919050565b6000602082019050818103600083015261261e816125e2565b9050919050565b7f5f63616e64696461746549642073686f756c642062652062696767657220746860008201527f616e203020616e64206c657373207468616e2063616e64696461746573436f7560208201527f6e74000000000000000000000000000000000000000000000000000000000000604082015250565b60006126a7604283612200565b91506126b282612625565b606082019050919050565b600060208201905081810360008301526126d68161269a565b9050919050565b7f4e487b7100000000000000000000000000000000000000000000000000000000600052601160045260246000fd5b600061271782611f1f565b915061272283611f1f565b9250827fffffffffffffffffffffffffffffffffffffffffffffffffffffffffffffffff03821115612757576127566126dd565b5b828201905092915050565b7f526567697374726174696f6e2074696d65206973206f76657200000000000000600082015250565b6000612798601983612200565b91506127a382612762565b602082019050919050565b600060208201905081810360008301526127c78161278b565b9050919050565b7f4f6e6c79206f776e65722063616e20706572666f726d2074686973206163746960008201527f6f6e000000000000000000000000000000000000000000000000000000000000602082015250565b600061282a602283612200565b9150612835826127ce565b604082019050919050565b600060208201905081810360008301526128598161281d565b9050919050565b7f596f752061726520616c72656164792072656769737465726564000000000000600082015250565b6000612896601a83612200565b91506128a182612860565b602082019050919050565b600060208201905081810360008301526128c581612889565b9050919050565b7f43616e646964617465206e6f7420666f756e6400000000000000000000000000600082015250565b6000612902601383612200565b915061290d826128cc565b602082019050919050565b60006020820190508181036000830152612931816128f5565b9050919050565b7f4e487b7100000000000000000000000000000000000000000000000000000000600052602260045260246000fd5b6000600282049050600182168061297f57607f821691505b6020821081141561299357612992612938565b5b50919050565b7f596f7520617265206e6f74207265676973746572656400000000000000000000600082015250565b60006129cf601683612200565b91506129da82612999565b602082019050919050565b600060208201905081810360008301526129fe816129c2565b9050919050565b6000612a1082611f1f565b9150612a1b83611f1f565b925082821015612a2e57612a2d6126dd565b5b828203905092915050565b7f4e487b7100000000000000000000000000000000000000000000000000000000600052603260045260246000fd5b6000612a7382611f1f565b91507fffffffffffffffffffffffffffffffffffffffffffffffffffffffffffffffff821415612aa657612aa56126dd565b5b600182019050919050565b7f596f752068617665206e6f20726967687420746f20766f746500000000000000600082015250565b6000612ae7601983612200565b9150612af282612ab1565b602082019050919050565b60006020820190508181036000830152612b1681612ada565b9050919050565b7f596f7520616c726561647920766f7465642e0000000000000000000000000000600082015250565b6000612b53601283612200565b9150612b5e82612b1d565b602082019050919050565b60006020820190508181036000830152612b8281612b46565b9050919050565b7f53656c662d64656c65676174696f6e20697320646973616c6c6f7765642e0000600082015250565b6000612bbf601e83612200565b9150612bca82612b89565b602082019050919050565b60006020820190508181036000830152612bee81612bb2565b9050919050565b7f466f756e64206c6f6f7020696e2064656c65676174696f6e2e00000000000000600082015250565b6000612c2b601983612200565b9150612c3682612bf5565b602082019050919050565b60006020820190508181036000830152612c5a81612c1e565b9050919050565b7f496e76616c69642063616e646964617465206964000000000000000000000000600082015250565b6000612c97601483612200565b9150612ca282612c61565b602082019050919050565b60006020820190508181036000830152612cc681612c8a565b905091905056fea26469706673582212202c5ac09f07b005173a2e465fd30bd4cf54e4460838c229c3de6847d8ceac983064736f6c63430008090033",
  "linkReferences": {},
  "deployedLinkReferences": {}
}