{
  "_format": "hh-sol-artifact-1",
  "contractName": "Election",
  "sourceName": "contracts/Election.sol",
  "abi": [
    {
      "inputs": [
        {
          "internalType": "uint64",
          "name": "_startTime",
          "type": "uint64"
        },
        {
          "internalType": "uint64",
          "name": "_endTime",
          "type": "uint64"
        },
        {
          "internalType": "string[]",
          "name": "_proposals",
          "type": "string[]"
        }
      ],
      "stateMutability": "nonpayable",
      "type": "constructor"
    },
    {
      "inputs": [
        {
          "internalType": "string",
          "name": "_name",
          "type": "string"
        }
      ],
      "name": "addProposal",
      "outputs": [],
      "stateMutability": "nonpayable",
      "type": "function"
    },
    {
      "inputs": [
        {
          "internalType": "string",
          "name": "_name",
          "type": "string"
        },
        {
          "internalType": "address",
          "name": "_id",
          "type": "address"
        },
        {
          "internalType": "uint256",
          "name": "_numberOfShares",
          "type": "uint256"
        }
      ],
      "name": "addShareholder",
      "outputs": [],
      "stateMutability": "nonpayable",
      "type": "function"
    },
    {
      "inputs": [
        {
          "internalType": "address",
          "name": "_to",
          "type": "address"
        }
      ],
      "name": "delegate",
      "outputs": [],
      "stateMutability": "nonpayable",
      "type": "function"
    },
    {
      "inputs": [
        {
          "internalType": "uint256",
          "name": "_id",
          "type": "uint256"
        }
      ],
      "name": "deleteProposal",
      "outputs": [],
      "stateMutability": "nonpayable",
      "type": "function"
    },
    {
      "inputs": [
        {
          "internalType": "address",
          "name": "_id",
          "type": "address"
        }
      ],
      "name": "deleteShareholder",
      "outputs": [],
      "stateMutability": "nonpayable",
      "type": "function"
    },
    {
      "inputs": [
        {
          "internalType": "uint256",
          "name": "_id",
          "type": "uint256"
        },
        {
          "internalType": "string",
          "name": "_name",
          "type": "string"
        }
      ],
      "name": "editProposal",
      "outputs": [],
      "stateMutability": "nonpayable",
      "type": "function"
    },
    {
      "inputs": [
        {
          "internalType": "string",
          "name": "_name",
          "type": "string"
        },
        {
          "internalType": "address",
          "name": "_id",
          "type": "address"
        },
        {
          "internalType": "uint256",
          "name": "_numberOfShares",
          "type": "uint256"
        }
      ],
      "name": "editShareholder",
      "outputs": [],
      "stateMutability": "nonpayable",
      "type": "function"
    },
    {
      "inputs": [],
      "name": "endTime",
      "outputs": [
        {
          "internalType": "uint64",
          "name": "",
          "type": "uint64"
        }
      ],
      "stateMutability": "view",
      "type": "function"
    },
    {
      "inputs": [
        {
          "internalType": "uint256",
          "name": "currentTime",
          "type": "uint256"
        }
      ],
      "name": "getElectionStatus",
      "outputs": [
        {
          "internalType": "string",
          "name": "",
          "type": "string"
        }
      ],
      "stateMutability": "view",
      "type": "function"
    },
    {
      "inputs": [],
      "name": "owner",
      "outputs": [
        {
          "internalType": "address",
          "name": "",
          "type": "address"
        }
      ],
      "stateMutability": "view",
      "type": "function"
    },
    {
      "inputs": [
        {
          "internalType": "uint256",
          "name": "",
          "type": "uint256"
        }
      ],
      "name": "proposals",
      "outputs": [
        {
          "internalType": "uint256",
          "name": "id",
          "type": "uint256"
        },
        {
          "internalType": "string",
          "name": "name",
          "type": "string"
        },
        {
          "internalType": "uint256",
          "name": "votes",
          "type": "uint256"
        }
      ],
      "stateMutability": "view",
      "type": "function"
    },
    {
      "inputs": [],
      "name": "proposalsCount",
      "outputs": [
        {
          "internalType": "uint256",
          "name": "",
          "type": "uint256"
        }
      ],
      "stateMutability": "view",
      "type": "function"
    },
    {
      "inputs": [
        {
          "internalType": "address",
          "name": "",
          "type": "address"
        }
      ],
      "name": "shareholders",
      "outputs": [
        {
          "internalType": "address",
          "name": "id",
          "type": "address"
        },
        {
          "internalType": "string",
          "name": "name",
          "type": "string"
        },
        {
          "internalType": "bool",
          "name": "voted",
          "type": "bool"
        },
        {
          "internalType": "address",
          "name": "delegate",
          "type": "address"
        },
        {
          "internalType": "uint256",
          "name": "vote",
          "type": "uint256"
        },
        {
          "internalType": "uint256",
          "name": "numberOfShares",
          "type": "uint256"
        },
        {
          "internalType": "uint256",
          "name": "weight",
          "type": "uint256"
        }
      ],
      "stateMutability": "view",
      "type": "function"
    },
    {
      "inputs": [
        {
          "internalType": "uint256",
          "name": "",
          "type": "uint256"
        }
      ],
      "name": "shareholdersAddresses",
      "outputs": [
        {
          "internalType": "address",
          "name": "",
          "type": "address"
        }
      ],
      "stateMutability": "view",
      "type": "function"
    },
    {
      "inputs": [],
      "name": "startTime",
      "outputs": [
        {
          "internalType": "uint64",
          "name": "",
          "type": "uint64"
        }
      ],
      "stateMutability": "view",
      "type": "function"
    },
    {
      "inputs": [
        {
          "internalType": "uint256",
          "name": "_proposalId",
          "type": "uint256"
        }
      ],
      "name": "vote",
      "outputs": [],
      "stateMutability": "nonpayable",
      "type": "function"
    }
  ],
  "bytecode": "0x60806040523480156200001157600080fd5b50604051620033d7380380620033d783398181016040528101906200003791906200062f565b336000806101000a81548173ffffffffffffffffffffffffffffffffffffffff021916908373ffffffffffffffffffffffffffffffffffffffff16021790555082600560006101000a81548167ffffffffffffffff021916908367ffffffffffffffff16021790555081600560086101000a81548167ffffffffffffffff021916908367ffffffffffffffff16021790555060005b81518110156200011a5762000104828281518110620000f057620000ef620006aa565b5b60200260200101516200012460201b60201c565b8080620001119062000712565b915050620000cc565b50505050620008e0565b60008054906101000a900473ffffffffffffffffffffffffffffffffffffffff1673ffffffffffffffffffffffffffffffffffffffff163373ffffffffffffffffffffffffffffffffffffffff1614620001b5576040517f08c379a0000000000000000000000000000000000000000000000000000000008152600401620001ac90620007e7565b60405180910390fd5b600560009054906101000a900467ffffffffffffffff1667ffffffffffffffff164211156200021b576040517f08c379a0000000000000000000000000000000000000000000000000000000008152600401620002129062000859565b60405180910390fd5b60026000815480929190620002309062000712565b919050555060405180606001604052806002548152602001828152602001600081525060016000600254815260200190815260200160002060008201518160000155602082015181600101908051906020019062000290929190620002a1565b506040820151816002015590505050565b828054620002af90620008aa565b90600052602060002090601f016020900481019282620002d357600085556200031f565b82601f10620002ee57805160ff19168380011785556200031f565b828001600101855582156200031f579182015b828111156200031e57825182559160200191906001019062000301565b5b5090506200032e919062000332565b5090565b5b808211156200034d57600081600090555060010162000333565b5090565b6000604051905090565b600080fd5b600080fd5b600067ffffffffffffffff82169050919050565b620003848162000365565b81146200039057600080fd5b50565b600081519050620003a48162000379565b92915050565b600080fd5b6000601f19601f8301169050919050565b7f4e487b7100000000000000000000000000000000000000000000000000000000600052604160045260246000fd5b620003fa82620003af565b810181811067ffffffffffffffff821117156200041c576200041b620003c0565b5b80604052505050565b60006200043162000351565b90506200043f8282620003ef565b919050565b600067ffffffffffffffff821115620004625762000461620003c0565b5b602082029050602081019050919050565b600080fd5b600080fd5b600067ffffffffffffffff8211156200049b576200049a620003c0565b5b620004a682620003af565b9050602081019050919050565b60005b83811015620004d3578082015181840152602081019050620004b6565b83811115620004e3576000848401525b50505050565b600062000500620004fa846200047d565b62000425565b9050828152602081018484840111156200051f576200051e62000478565b5b6200052c848285620004b3565b509392505050565b600082601f8301126200054c576200054b620003aa565b5b81516200055e848260208601620004e9565b91505092915050565b60006200057e620005788462000444565b62000425565b90508083825260208201905060208402830185811115620005a457620005a362000473565b5b835b81811015620005f257805167ffffffffffffffff811115620005cd57620005cc620003aa565b5b808601620005dc898262000534565b85526020850194505050602081019050620005a6565b5050509392505050565b600082601f830112620006145762000613620003aa565b5b81516200062684826020860162000567565b91505092915050565b6000806000606084860312156200064b576200064a6200035b565b5b60006200065b8682870162000393565b93505060206200066e8682870162000393565b925050604084015167ffffffffffffffff81111562000692576200069162000360565b5b620006a086828701620005fc565b9150509250925092565b7f4e487b7100000000000000000000000000000000000000000000000000000000600052603260045260246000fd5b7f4e487b7100000000000000000000000000000000000000000000000000000000600052601160045260246000fd5b6000819050919050565b60006200071f8262000708565b91507fffffffffffffffffffffffffffffffffffffffffffffffffffffffffffffffff821415620007555762000754620006d9565b5b600182019050919050565b600082825260208201905092915050565b7f4170656e6173206f2061646d696e6973747261646f7220706f6465207065726660008201527f6f6d61722065737461206163616f2e0000000000000000000000000000000000602082015250565b6000620007cf602f8362000760565b9150620007dc8262000771565b604082019050919050565b600060208201905081810360008301526200080281620007c0565b9050919050565b7f506572696f646f20646520726567697374726f20616361626f752e0000000000600082015250565b600062000841601b8362000760565b91506200084e8262000809565b602082019050919050565b60006020820190508181036000830152620008748162000832565b9050919050565b7f4e487b7100000000000000000000000000000000000000000000000000000000600052602260045260246000fd5b60006002820490506001821680620008c357607f821691505b60208210811415620008da57620008d96200087b565b5b50919050565b612ae780620008f06000396000f3fe608060405234801561001057600080fd5b50600436106100ff5760003560e01c806343605f54116100975780638259d553116100665780638259d553146102b25780638da5cb5b146102ce578063ae5408b9146102ec578063bfae217214610308576100ff565b806343605f54146102265780635c19a95c146102425780635c2930ad1461025e57806378e9792514610294576100ff565b80630affdf2c116100d35780630affdf2c146101a057806324785b9e146101bc5780632fdae3c5146101ec5780633197cbb614610208576100ff565b8062fe012e146101045780630121b93f14610134578063013cf08b146101505780630a9f46ad14610182575b600080fd5b61011e60048036038101906101199190611eec565b610324565b60405161012b9190611f5a565b60405180910390f35b61014e60048036038101906101499190611eec565b610363565b005b61016a60048036038101906101659190611eec565b61071a565b6040516101799392919061201d565b60405180910390f35b61018a6107cc565b604051610197919061205b565b60405180910390f35b6101ba60048036038101906101b591906121d7565b6107d2565b005b6101d660048036038101906101d19190611eec565b610b91565b6040516101e39190612246565b60405180910390f35b61020660048036038101906102019190612268565b610c9b565b005b610210610e0e565b60405161021d91906122d4565b60405180910390f35b610240600480360381019061023b91906122ef565b610e28565b005b61025c600480360381019061025791906122ef565b611252565b005b610278600480360381019061027391906122ef565b611639565b60405161028b9796959493929190612337565b60405180910390f35b61029c611750565b6040516102a991906122d4565b60405180910390f35b6102cc60048036038101906102c79190611eec565b61176a565b005b6102d66118ec565b6040516102e39190611f5a565b60405180910390f35b610306600480360381019061030191906121d7565b611910565b005b610322600480360381019061031d91906123ad565b611bbd565b005b6004818154811061033457600080fd5b906000526020600020016000915054906101000a900473ffffffffffffffffffffffffffffffffffffffff1681565b600560089054906101000a900467ffffffffffffffff1667ffffffffffffffff164211156103c6576040517f08c379a00000000000000000000000000000000000000000000000000000000081526004016103bd90612455565b60405180910390fd5b600073ffffffffffffffffffffffffffffffffffffffff16600360003373ffffffffffffffffffffffffffffffffffffffff1673ffffffffffffffffffffffffffffffffffffffff16815260200190815260200160002060000160009054906101000a900473ffffffffffffffffffffffffffffffffffffffff1673ffffffffffffffffffffffffffffffffffffffff161415610498576040517f08c379a000000000000000000000000000000000000000000000000000000000815260040161048f906124e7565b60405180910390fd5b6000600360003373ffffffffffffffffffffffffffffffffffffffff1673ffffffffffffffffffffffffffffffffffffffff16815260200190815260200160002060040154141561051e576040517f08c379a000000000000000000000000000000000000000000000000000000000815260040161051590612553565b60405180910390fd5b600360003373ffffffffffffffffffffffffffffffffffffffff1673ffffffffffffffffffffffffffffffffffffffff16815260200190815260200160002060020160009054906101000a900460ff16156105ae576040517f08c379a00000000000000000000000000000000000000000000000000000000081526004016105a5906125bf565b60405180910390fd5b80600160008381526020019081526020016000206000015414610606576040517f08c379a00000000000000000000000000000000000000000000000000000000081526004016105fd9061262b565b60405180910390fd5b6001600360003373ffffffffffffffffffffffffffffffffffffffff1673ffffffffffffffffffffffffffffffffffffffff16815260200190815260200160002060020160006101000a81548160ff02191690831515021790555080600360003373ffffffffffffffffffffffffffffffffffffffff1673ffffffffffffffffffffffffffffffffffffffff16815260200190815260200160002060030181905550600360003373ffffffffffffffffffffffffffffffffffffffff1673ffffffffffffffffffffffffffffffffffffffff16815260200190815260200160002060050154600160008381526020019081526020016000206002016000828254610710919061267a565b9250508190555050565b6001602052806000526040600020600091509050806000015490806001018054610743906126ff565b80601f016020809104026020016040519081016040528092919081815260200182805461076f906126ff565b80156107bc5780601f10610791576101008083540402835291602001916107bc565b820191906000526020600020905b81548152906001019060200180831161079f57829003601f168201915b5050505050908060020154905083565b60025481565b600560009054906101000a900467ffffffffffffffff1667ffffffffffffffff16421115610835576040517f08c379a000000000000000000000000000000000000000000000000000000000815260040161082c9061277d565b60405180910390fd5b60008054906101000a900473ffffffffffffffffffffffffffffffffffffffff1673ffffffffffffffffffffffffffffffffffffffff163373ffffffffffffffffffffffffffffffffffffffff16146108c3576040517f08c379a00000000000000000000000000000000000000000000000000000000081526004016108ba9061280f565b60405180910390fd5b600073ffffffffffffffffffffffffffffffffffffffff16600360008473ffffffffffffffffffffffffffffffffffffffff1673ffffffffffffffffffffffffffffffffffffffff16815260200190815260200160002060000160009054906101000a900473ffffffffffffffffffffffffffffffffffffffff1673ffffffffffffffffffffffffffffffffffffffff1614610994576040517f08c379a000000000000000000000000000000000000000000000000000000000815260040161098b9061287b565b60405180910390fd5b60006040518060e001604052808473ffffffffffffffffffffffffffffffffffffffff168152602001858152602001600015158152602001600073ffffffffffffffffffffffffffffffffffffffff1681526020016000815260200183815260200183815250905080600360008573ffffffffffffffffffffffffffffffffffffffff1673ffffffffffffffffffffffffffffffffffffffff16815260200190815260200160002060008201518160000160006101000a81548173ffffffffffffffffffffffffffffffffffffffff021916908373ffffffffffffffffffffffffffffffffffffffff1602179055506020820151816001019080519060200190610a9f929190611d35565b5060408201518160020160006101000a81548160ff02191690831515021790555060608201518160020160016101000a81548173ffffffffffffffffffffffffffffffffffffffff021916908373ffffffffffffffffffffffffffffffffffffffff1602179055506080820151816003015560a0820151816004015560c082015181600501559050506004839080600181540180825580915050600190039060005260206000200160009091909190916101000a81548173ffffffffffffffffffffffffffffffffffffffff021916908373ffffffffffffffffffffffffffffffffffffffff16021790555050505050565b6060600560009054906101000a900467ffffffffffffffff1667ffffffffffffffff16821015610bf8576040518060400160405280600c81526020017f526567697374726174696f6e00000000000000000000000000000000000000008152509050610c96565b600560089054906101000a900467ffffffffffffffff1667ffffffffffffffff16821015610c5d576040518060400160405280600681526020017f566f74696e6700000000000000000000000000000000000000000000000000008152509050610c96565b6040518060400160405280600881526020017f46696e697368656400000000000000000000000000000000000000000000000081525090505b919050565b60008054906101000a900473ffffffffffffffffffffffffffffffffffffffff1673ffffffffffffffffffffffffffffffffffffffff163373ffffffffffffffffffffffffffffffffffffffff1614610d29576040517f08c379a0000000000000000000000000000000000000000000000000000000008152600401610d209061280f565b60405180910390fd5b600560009054906101000a900467ffffffffffffffff1667ffffffffffffffff16421115610d8c576040517f08c379a0000000000000000000000000000000000000000000000000000000008152600401610d839061277d565b60405180910390fd5b60026000815480929190610d9f9061289b565b9190505550604051806060016040528060025481526020018281526020016000815250600160006002548152602001908152602001600020600082015181600001556020820151816001019080519060200190610dfd929190611d35565b506040820151816002015590505050565b600560089054906101000a900467ffffffffffffffff1681565b600560009054906101000a900467ffffffffffffffff1667ffffffffffffffff16421115610e8b576040517f08c379a0000000000000000000000000000000000000000000000000000000008152600401610e829061277d565b60405180910390fd5b60008054906101000a900473ffffffffffffffffffffffffffffffffffffffff1673ffffffffffffffffffffffffffffffffffffffff163373ffffffffffffffffffffffffffffffffffffffff1614610f19576040517f08c379a0000000000000000000000000000000000000000000000000000000008152600401610f109061280f565b60405180910390fd5b600073ffffffffffffffffffffffffffffffffffffffff16600360008373ffffffffffffffffffffffffffffffffffffffff1673ffffffffffffffffffffffffffffffffffffffff16815260200190815260200160002060000160009054906101000a900473ffffffffffffffffffffffffffffffffffffffff1673ffffffffffffffffffffffffffffffffffffffff161415610feb576040517f08c379a0000000000000000000000000000000000000000000000000000000008152600401610fe290612930565b60405180910390fd5b600360008273ffffffffffffffffffffffffffffffffffffffff1673ffffffffffffffffffffffffffffffffffffffff168152602001908152602001600020600080820160006101000a81549073ffffffffffffffffffffffffffffffffffffffff02191690556001820160006110629190611dbb565b6002820160006101000a81549060ff02191690556002820160016101000a81549073ffffffffffffffffffffffffffffffffffffffff02191690556003820160009055600482016000905560058201600090555050600060016004805490506110cb9190612950565b67ffffffffffffffff8111156110e4576110e3612080565b5b6040519080825280602002602001820160405280156111125781602001602082028036833780820191505090505b50905060005b600480549050811015611236578273ffffffffffffffffffffffffffffffffffffffff16600482815481106111505761114f612984565b5b9060005260206000200160009054906101000a900473ffffffffffffffffffffffffffffffffffffffff1673ffffffffffffffffffffffffffffffffffffffff161461122357600481815481106111aa576111a9612984565b5b9060005260206000200160009054906101000a900473ffffffffffffffffffffffffffffffffffffffff168282815181106111e8576111e7612984565b5b602002602001019073ffffffffffffffffffffffffffffffffffffffff16908173ffffffffffffffffffffffffffffffffffffffff16815250505b808061122e9061289b565b915050611118565b50806004908051906020019061124d929190611dfb565b505050565b6000600360003373ffffffffffffffffffffffffffffffffffffffff1673ffffffffffffffffffffffffffffffffffffffff16815260200190815260200160002090506000816004015414156112dd576040517f08c379a00000000000000000000000000000000000000000000000000000000081526004016112d490612553565b60405180910390fd5b8060020160009054906101000a900460ff161561132f576040517f08c379a0000000000000000000000000000000000000000000000000000000008152600401611326906125bf565b60405180910390fd5b3373ffffffffffffffffffffffffffffffffffffffff168273ffffffffffffffffffffffffffffffffffffffff16141561139e576040517f08c379a0000000000000000000000000000000000000000000000000000000008152600401611395906129ff565b60405180910390fd5b5b600073ffffffffffffffffffffffffffffffffffffffff16600360008473ffffffffffffffffffffffffffffffffffffffff1673ffffffffffffffffffffffffffffffffffffffff16815260200190815260200160002060020160019054906101000a900473ffffffffffffffffffffffffffffffffffffffff1673ffffffffffffffffffffffffffffffffffffffff161461150e57600360008373ffffffffffffffffffffffffffffffffffffffff1673ffffffffffffffffffffffffffffffffffffffff16815260200190815260200160002060020160019054906101000a900473ffffffffffffffffffffffffffffffffffffffff1691503373ffffffffffffffffffffffffffffffffffffffff168273ffffffffffffffffffffffffffffffffffffffff161415611509576040517f08c379a000000000000000000000000000000000000000000000000000000000815260040161150090612a91565b60405180910390fd5b61139f565b6000600360008473ffffffffffffffffffffffffffffffffffffffff1673ffffffffffffffffffffffffffffffffffffffff168152602001908152602001600020905060018160050154101561156357600080fd5b60018260020160006101000a81548160ff021916908315150217905550828260020160016101000a81548173ffffffffffffffffffffffffffffffffffffffff021916908373ffffffffffffffffffffffffffffffffffffffff1602179055508060020160009054906101000a900460ff161561161457816005015460016000836003015481526020019081526020016000206002016000828254611608919061267a565b92505081905550611634565b816005015481600501600082825461162c919061267a565b925050819055505b505050565b60036020528060005260406000206000915090508060000160009054906101000a900473ffffffffffffffffffffffffffffffffffffffff1690806001018054611682906126ff565b80601f01602080910402602001604051908101604052809291908181526020018280546116ae906126ff565b80156116fb5780601f106116d0576101008083540402835291602001916116fb565b820191906000526020600020905b8154815290600101906020018083116116de57829003601f168201915b5050505050908060020160009054906101000a900460ff16908060020160019054906101000a900473ffffffffffffffffffffffffffffffffffffffff16908060030154908060040154908060050154905087565b600560009054906101000a900467ffffffffffffffff1681565b60008054906101000a900473ffffffffffffffffffffffffffffffffffffffff1673ffffffffffffffffffffffffffffffffffffffff163373ffffffffffffffffffffffffffffffffffffffff16146117f8576040517f08c379a00000000000000000000000000000000000000000000000000000000081526004016117ef9061280f565b60405180910390fd5b600560009054906101000a900467ffffffffffffffff1667ffffffffffffffff1642111561185b576040517f08c379a00000000000000000000000000000000000000000000000000000000081526004016118529061277d565b60405180910390fd5b806001600083815260200190815260200160002060000154146118b3576040517f08c379a00000000000000000000000000000000000000000000000000000000081526004016118aa9061262b565b60405180910390fd5b600160008281526020019081526020016000206000808201600090556001820160006118df9190611dbb565b6002820160009055505050565b60008054906101000a900473ffffffffffffffffffffffffffffffffffffffff1681565b600560009054906101000a900467ffffffffffffffff1667ffffffffffffffff16421115611973576040517f08c379a000000000000000000000000000000000000000000000000000000000815260040161196a9061277d565b60405180910390fd5b60008054906101000a900473ffffffffffffffffffffffffffffffffffffffff1673ffffffffffffffffffffffffffffffffffffffff163373ffffffffffffffffffffffffffffffffffffffff1614611a01576040517f08c379a00000000000000000000000000000000000000000000000000000000081526004016119f89061280f565b60405180910390fd5b600073ffffffffffffffffffffffffffffffffffffffff16600360008473ffffffffffffffffffffffffffffffffffffffff1673ffffffffffffffffffffffffffffffffffffffff16815260200190815260200160002060000160009054906101000a900473ffffffffffffffffffffffffffffffffffffffff1673ffffffffffffffffffffffffffffffffffffffff161415611ad3576040517f08c379a0000000000000000000000000000000000000000000000000000000008152600401611aca90612930565b60405180910390fd5b82600360008473ffffffffffffffffffffffffffffffffffffffff1673ffffffffffffffffffffffffffffffffffffffff1681526020019081526020016000206001019080519060200190611b29929190611d35565b5080600360008473ffffffffffffffffffffffffffffffffffffffff1673ffffffffffffffffffffffffffffffffffffffff1681526020019081526020016000206004018190555080600360008473ffffffffffffffffffffffffffffffffffffffff1673ffffffffffffffffffffffffffffffffffffffff16815260200190815260200160002060050181905550505050565b60008054906101000a900473ffffffffffffffffffffffffffffffffffffffff1673ffffffffffffffffffffffffffffffffffffffff163373ffffffffffffffffffffffffffffffffffffffff1614611c4b576040517f08c379a0000000000000000000000000000000000000000000000000000000008152600401611c429061280f565b60405180910390fd5b600560009054906101000a900467ffffffffffffffff1667ffffffffffffffff16421115611cae576040517f08c379a0000000000000000000000000000000000000000000000000000000008152600401611ca59061277d565b60405180910390fd5b81600160008481526020019081526020016000206000015414611d06576040517f08c379a0000000000000000000000000000000000000000000000000000000008152600401611cfd9061262b565b60405180910390fd5b80600160008481526020019081526020016000206001019080519060200190611d30929190611d35565b505050565b828054611d41906126ff565b90600052602060002090601f016020900481019282611d635760008555611daa565b82601f10611d7c57805160ff1916838001178555611daa565b82800160010185558215611daa579182015b82811115611da9578251825591602001919060010190611d8e565b5b509050611db79190611e85565b5090565b508054611dc7906126ff565b6000825580601f10611dd95750611df8565b601f016020900490600052602060002090810190611df79190611e85565b5b50565b828054828255906000526020600020908101928215611e74579160200282015b82811115611e735782518260006101000a81548173ffffffffffffffffffffffffffffffffffffffff021916908373ffffffffffffffffffffffffffffffffffffffff16021790555091602001919060010190611e1b565b5b509050611e819190611e85565b5090565b5b80821115611e9e576000816000905550600101611e86565b5090565b6000604051905090565b600080fd5b600080fd5b6000819050919050565b611ec981611eb6565b8114611ed457600080fd5b50565b600081359050611ee681611ec0565b92915050565b600060208284031215611f0257611f01611eac565b5b6000611f1084828501611ed7565b91505092915050565b600073ffffffffffffffffffffffffffffffffffffffff82169050919050565b6000611f4482611f19565b9050919050565b611f5481611f39565b82525050565b6000602082019050611f6f6000830184611f4b565b92915050565b611f7e81611eb6565b82525050565b600081519050919050565b600082825260208201905092915050565b60005b83811015611fbe578082015181840152602081019050611fa3565b83811115611fcd576000848401525b50505050565b6000601f19601f8301169050919050565b6000611fef82611f84565b611ff98185611f8f565b9350612009818560208601611fa0565b61201281611fd3565b840191505092915050565b60006060820190506120326000830186611f75565b81810360208301526120448185611fe4565b90506120536040830184611f75565b949350505050565b60006020820190506120706000830184611f75565b92915050565b600080fd5b600080fd5b7f4e487b7100000000000000000000000000000000000000000000000000000000600052604160045260246000fd5b6120b882611fd3565b810181811067ffffffffffffffff821117156120d7576120d6612080565b5b80604052505050565b60006120ea611ea2565b90506120f682826120af565b919050565b600067ffffffffffffffff82111561211657612115612080565b5b61211f82611fd3565b9050602081019050919050565b82818337600083830152505050565b600061214e612149846120fb565b6120e0565b90508281526020810184848401111561216a5761216961207b565b5b61217584828561212c565b509392505050565b600082601f83011261219257612191612076565b5b81356121a284826020860161213b565b91505092915050565b6121b481611f39565b81146121bf57600080fd5b50565b6000813590506121d1816121ab565b92915050565b6000806000606084860312156121f0576121ef611eac565b5b600084013567ffffffffffffffff81111561220e5761220d611eb1565b5b61221a8682870161217d565b935050602061222b868287016121c2565b925050604061223c86828701611ed7565b9150509250925092565b600060208201905081810360008301526122608184611fe4565b905092915050565b60006020828403121561227e5761227d611eac565b5b600082013567ffffffffffffffff81111561229c5761229b611eb1565b5b6122a88482850161217d565b91505092915050565b600067ffffffffffffffff82169050919050565b6122ce816122b1565b82525050565b60006020820190506122e960008301846122c5565b92915050565b60006020828403121561230557612304611eac565b5b6000612313848285016121c2565b91505092915050565b60008115159050919050565b6123318161231c565b82525050565b600060e08201905061234c600083018a611f4b565b818103602083015261235e8189611fe4565b905061236d6040830188612328565b61237a6060830187611f4b565b6123876080830186611f75565b61239460a0830185611f75565b6123a160c0830184611f75565b98975050505050505050565b600080604083850312156123c4576123c3611eac565b5b60006123d285828601611ed7565b925050602083013567ffffffffffffffff8111156123f3576123f2611eb1565b5b6123ff8582860161217d565b9150509250929050565b7f506572696f646f20646520766f746163616f20616361626f752e000000000000600082015250565b600061243f601a83611f8f565b915061244a82612409565b602082019050919050565b6000602082019050818103600083015261246e81612432565b9050919050565b7f4170656e6173206163696f6e697374617320706f64656d20706572666f726d6160008201527f722065737461206163616f2e0000000000000000000000000000000000000000602082015250565b60006124d1602c83611f8f565b91506124dc82612475565b604082019050919050565b60006020820190508181036000830152612500816124c4565b9050919050565b7f4163696f6e69737461206e616f20706f737375692061636f65732e0000000000600082015250565b600061253d601b83611f8f565b915061254882612507565b602082019050919050565b6000602082019050818103600083015261256c81612530565b9050919050565b7f4163696f6e69737461206a6120766f746f752e00000000000000000000000000600082015250565b60006125a9601383611f8f565b91506125b482612573565b602082019050919050565b600060208201905081810360008301526125d88161259c565b9050919050565b7f50726f706f737461206e616f20656e636f6e74726164612e0000000000000000600082015250565b6000612615601883611f8f565b9150612620826125df565b602082019050919050565b6000602082019050818103600083015261264481612608565b9050919050565b7f4e487b7100000000000000000000000000000000000000000000000000000000600052601160045260246000fd5b600061268582611eb6565b915061269083611eb6565b9250827fffffffffffffffffffffffffffffffffffffffffffffffffffffffffffffffff038211156126c5576126c461264b565b5b828201905092915050565b7f4e487b7100000000000000000000000000000000000000000000000000000000600052602260045260246000fd5b6000600282049050600182168061271757607f821691505b6020821081141561272b5761272a6126d0565b5b50919050565b7f506572696f646f20646520726567697374726f20616361626f752e0000000000600082015250565b6000612767601b83611f8f565b915061277282612731565b602082019050919050565b600060208201905081810360008301526127968161275a565b9050919050565b7f4170656e6173206f2061646d696e6973747261646f7220706f6465207065726660008201527f6f6d61722065737461206163616f2e0000000000000000000000000000000000602082015250565b60006127f9602f83611f8f565b91506128048261279d565b604082019050919050565b60006020820190508181036000830152612828816127ec565b9050919050565b7f4163696f6e69737461206a612065737461207265676973747261646f2e000000600082015250565b6000612865601d83611f8f565b91506128708261282f565b602082019050919050565b6000602082019050818103600083015261289481612858565b9050919050565b60006128a682611eb6565b91507fffffffffffffffffffffffffffffffffffffffffffffffffffffffffffffffff8214156128d9576128d861264b565b5b600182019050919050565b7f4163696f6e69737461206e616f2065737461207265676973747261646f2e0000600082015250565b600061291a601e83611f8f565b9150612925826128e4565b602082019050919050565b600060208201905081810360008301526129498161290d565b9050919050565b600061295b82611eb6565b915061296683611eb6565b9250828210156129795761297861264b565b5b828203905092915050565b7f4e487b7100000000000000000000000000000000000000000000000000000000600052603260045260246000fd5b7f4e616f20706f64652064656c656761722070617261207369206d65736d6f2e00600082015250565b60006129e9601f83611f8f565b91506129f4826129b3565b602082019050919050565b60006020820190508181036000830152612a18816129dc565b9050919050565b7f466f6920656e636f6e747261646f20756d206c6f6f702064652064656c65676160008201527f63616f2e00000000000000000000000000000000000000000000000000000000602082015250565b6000612a7b602483611f8f565b9150612a8682612a1f565b604082019050919050565b60006020820190508181036000830152612aaa81612a6e565b905091905056fea26469706673582212200ed843422a7447ad41a670d81dfe75a68cce4d6604d7eb7440ab84fe9fe787e864736f6c63430008090033",
  "linkReferences": {},
  "deployedLinkReferences": {}
}